{
	"contracts/BatchTransfer.sol": {
		"BatchTransfer": {
			"abi": [
				{
					"inputs": [
						{
							"internalType": "address[]",
							"name": "_account",
							"type": "address[]"
						}
					],
					"name": "batchGetETHValue",
					"outputs": [
						{
							"internalType": "uint256[]",
							"name": "_ETHvalue",
							"type": "uint256[]"
						}
					],
					"stateMutability": "view",
					"type": "function"
				},
				{
					"inputs": [
						{
							"internalType": "address",
							"name": "_tokenAddress",
							"type": "address"
						},
						{
							"internalType": "address",
							"name": "_routerAddress",
							"type": "address"
						},
						{
							"internalType": "address[]",
							"name": "_account",
							"type": "address[]"
						}
					],
					"name": "batchGetValue",
					"outputs": [
						{
							"internalType": "uint256[]",
							"name": "_value",
							"type": "uint256[]"
						},
						{
							"internalType": "uint256[]",
							"name": "_approveValue",
							"type": "uint256[]"
						}
					],
					"stateMutability": "view",
					"type": "function"
				},
				{
					"inputs": [
						{
							"internalType": "address",
							"name": "_token",
							"type": "address"
						},
						{
							"internalType": "address[]",
							"name": "_address",
							"type": "address[]"
						},
						{
							"internalType": "uint256",
							"name": "_amount",
							"type": "uint256"
						}
					],
					"name": "batchTransferERC20",
					"outputs": [],
					"stateMutability": "nonpayable",
					"type": "function"
				},
				{
					"inputs": [
						{
							"internalType": "address[]",
							"name": "_address",
							"type": "address[]"
						}
					],
					"name": "batchTransferETH",
					"outputs": [],
					"stateMutability": "payable",
					"type": "function"
				}
			],
			"devdoc": {
				"custom:dev-run-script": "./scripts/deploy_with_ethers.ts",
				"details": "Store & retrieve value in a variable",
				"kind": "dev",
				"methods": {},
				"title": "Storage",
				"version": 1
			},
			"evm": {
				"assembly": "    /* \"contracts/BatchTransfer.sol\":199:1702  contract BatchTransfer {... */\n  mstore(0x40, 0x80)\n  callvalue\n  dup1\n  iszero\n  tag_1\n  jumpi\n  0x00\n  dup1\n  revert\ntag_1:\n  pop\n  dataSize(sub_0)\n  dup1\n  dataOffset(sub_0)\n  0x00\n  codecopy\n  0x00\n  return\nstop\n\nsub_0: assembly {\n        /* \"contracts/BatchTransfer.sol\":199:1702  contract BatchTransfer {... */\n      mstore(0x40, 0x80)\n      jumpi(tag_1, lt(calldatasize, 0x04))\n      shr(0xe0, calldataload(0x00))\n      dup1\n      0x15563fd9\n      eq\n      tag_2\n      jumpi\n      dup1\n      0x7e968195\n      eq\n      tag_3\n      jumpi\n      dup1\n      0x935f9502\n      eq\n      tag_4\n      jumpi\n      dup1\n      0xbeeae2a6\n      eq\n      tag_5\n      jumpi\n    tag_1:\n      0x00\n      dup1\n      revert\n        /* \"contracts/BatchTransfer.sol\":788:1369  function batchGetValue(... */\n    tag_2:\n      callvalue\n      dup1\n      iszero\n      tag_6\n      jumpi\n      0x00\n      dup1\n      revert\n    tag_6:\n      pop\n      tag_7\n      0x04\n      dup1\n      calldatasize\n      sub\n      dup2\n      add\n      swap1\n      tag_8\n      swap2\n      swap1\n      tag_9\n      jump\t// in\n    tag_8:\n      tag_10\n      jump\t// in\n    tag_7:\n      mload(0x40)\n      tag_11\n      swap3\n      swap2\n      swap1\n      tag_12\n      jump\t// in\n    tag_11:\n      mload(0x40)\n      dup1\n      swap2\n      sub\n      swap1\n      return\n        /* \"contracts/BatchTransfer.sol\":536:782  function batchTransferETH(address[] memory _address) public payable {... */\n    tag_3:\n      tag_13\n      0x04\n      dup1\n      calldatasize\n      sub\n      dup2\n      add\n      swap1\n      tag_14\n      swap2\n      swap1\n      tag_15\n      jump\t// in\n    tag_14:\n      tag_16\n      jump\t// in\n    tag_13:\n      stop\n        /* \"contracts/BatchTransfer.sol\":1374:1700  function batchGetETHValue(... */\n    tag_4:\n      callvalue\n      dup1\n      iszero\n      tag_17\n      jumpi\n      0x00\n      dup1\n      revert\n    tag_17:\n      pop\n      tag_18\n      0x04\n      dup1\n      calldatasize\n      sub\n      dup2\n      add\n      swap1\n      tag_19\n      swap2\n      swap1\n      tag_15\n      jump\t// in\n    tag_19:\n      tag_20\n      jump\t// in\n    tag_18:\n      mload(0x40)\n      tag_21\n      swap2\n      swap1\n      tag_22\n      jump\t// in\n    tag_21:\n      mload(0x40)\n      dup1\n      swap2\n      sub\n      swap1\n      return\n        /* \"contracts/BatchTransfer.sol\":228:530  function batchTransferERC20(... */\n    tag_5:\n      callvalue\n      dup1\n      iszero\n      tag_23\n      jumpi\n      0x00\n      dup1\n      revert\n    tag_23:\n      pop\n      tag_24\n      0x04\n      dup1\n      calldatasize\n      sub\n      dup2\n      add\n      swap1\n      tag_25\n      swap2\n      swap1\n      tag_26\n      jump\t// in\n    tag_25:\n      tag_27\n      jump\t// in\n    tag_24:\n      stop\n        /* \"contracts/BatchTransfer.sol\":788:1369  function batchGetValue(... */\n    tag_10:\n        /* \"contracts/BatchTransfer.sol\":960:980  uint[] memory _value */\n      0x60\n        /* \"contracts/BatchTransfer.sol\":982:1009  uint[] memory _approveValue */\n      dup1\n        /* \"contracts/BatchTransfer.sol\":1028:1040  IERC20 token */\n      0x00\n        /* \"contracts/BatchTransfer.sol\":1050:1063  _tokenAddress */\n      dup6\n        /* \"contracts/BatchTransfer.sol\":1028:1064  IERC20 token = IERC20(_tokenAddress) */\n      swap1\n      pop\n        /* \"contracts/BatchTransfer.sol\":1074:1085  uint length */\n      0x00\n        /* \"contracts/BatchTransfer.sol\":1088:1096  _account */\n      dup5\n        /* \"contracts/BatchTransfer.sol\":1088:1103  _account.length */\n      mload\n        /* \"contracts/BatchTransfer.sol\":1074:1103  uint length = _account.length */\n      swap1\n      pop\n        /* \"contracts/BatchTransfer.sol\":1133:1139  length */\n      dup1\n        /* \"contracts/BatchTransfer.sol\":1122:1140  new uint[](length) */\n      0xffffffffffffffff\n      dup2\n      gt\n      iszero\n      tag_29\n      jumpi\n      tag_30\n      tag_31\n      jump\t// in\n    tag_30:\n    tag_29:\n      mload(0x40)\n      swap1\n      dup1\n      dup3\n      mstore\n      dup1\n      0x20\n      mul\n      0x20\n      add\n      dup3\n      add\n      0x40\n      mstore\n      dup1\n      iszero\n      tag_32\n      jumpi\n      dup2\n      0x20\n      add\n      0x20\n      dup3\n      mul\n      dup1\n      calldatasize\n      dup4\n      calldatacopy\n      dup1\n      dup3\n      add\n      swap2\n      pop\n      pop\n      swap1\n      pop\n    tag_32:\n      pop\n        /* \"contracts/BatchTransfer.sol\":1113:1140  _value = new uint[](length) */\n      swap4\n      pop\n        /* \"contracts/BatchTransfer.sol\":1177:1183  length */\n      dup1\n        /* \"contracts/BatchTransfer.sol\":1166:1184  new uint[](length) */\n      0xffffffffffffffff\n      dup2\n      gt\n      iszero\n      tag_33\n      jumpi\n      tag_34\n      tag_31\n      jump\t// in\n    tag_34:\n    tag_33:\n      mload(0x40)\n      swap1\n      dup1\n      dup3\n      mstore\n      dup1\n      0x20\n      mul\n      0x20\n      add\n      dup3\n      add\n      0x40\n      mstore\n      dup1\n      iszero\n      tag_35\n      jumpi\n      dup2\n      0x20\n      add\n      0x20\n      dup3\n      mul\n      dup1\n      calldatasize\n      dup4\n      calldatacopy\n      dup1\n      dup3\n      add\n      swap2\n      pop\n      pop\n      swap1\n      pop\n    tag_35:\n      pop\n        /* \"contracts/BatchTransfer.sol\":1150:1184  _approveValue = new uint[](length) */\n      swap3\n      pop\n        /* \"contracts/BatchTransfer.sol\":1198:1204  uint i */\n      0x00\n        /* \"contracts/BatchTransfer.sol\":1194:1363  for(uint i = 0;i<length;i++){... */\n    tag_36:\n        /* \"contracts/BatchTransfer.sol\":1211:1217  length */\n      dup2\n        /* \"contracts/BatchTransfer.sol\":1209:1210  i */\n      dup2\n        /* \"contracts/BatchTransfer.sol\":1209:1217  i<length */\n      lt\n        /* \"contracts/BatchTransfer.sol\":1194:1363  for(uint i = 0;i<length;i++){... */\n      iszero\n      tag_37\n      jumpi\n        /* \"contracts/BatchTransfer.sol\":1248:1253  token */\n      dup3\n        /* \"contracts/BatchTransfer.sol\":1248:1263  token.balanceOf */\n      0xffffffffffffffffffffffffffffffffffffffff\n      and\n      0x70a08231\n        /* \"contracts/BatchTransfer.sol\":1264:1272  _account */\n      dup8\n        /* \"contracts/BatchTransfer.sol\":1273:1274  i */\n      dup4\n        /* \"contracts/BatchTransfer.sol\":1264:1275  _account[i] */\n      dup2\n      mload\n      dup2\n      lt\n      tag_39\n      jumpi\n      tag_40\n      tag_41\n      jump\t// in\n    tag_40:\n    tag_39:\n      0x20\n      mul\n      0x20\n      add\n      add\n      mload\n        /* \"contracts/BatchTransfer.sol\":1248:1276  token.balanceOf(_account[i]) */\n      mload(0x40)\n      dup3\n      0xffffffff\n      and\n      0xe0\n      shl\n      dup2\n      mstore\n      0x04\n      add\n      tag_42\n      swap2\n      swap1\n      tag_43\n      jump\t// in\n    tag_42:\n      0x20\n      mload(0x40)\n      dup1\n      dup4\n      sub\n      dup2\n      dup7\n      dup1\n      extcodesize\n      iszero\n      dup1\n      iszero\n      tag_44\n      jumpi\n      0x00\n      dup1\n      revert\n    tag_44:\n      pop\n      gas\n      staticcall\n      iszero\n      dup1\n      iszero\n      tag_46\n      jumpi\n      returndatasize\n      0x00\n      dup1\n      returndatacopy\n      revert(0x00, returndatasize)\n    tag_46:\n      pop\n      pop\n      pop\n      pop\n      mload(0x40)\n      returndatasize\n      not(0x1f)\n      0x1f\n      dup3\n      add\n      and\n      dup3\n      add\n      dup1\n      0x40\n      mstore\n      pop\n      dup2\n      add\n      swap1\n      tag_47\n      swap2\n      swap1\n      tag_48\n      jump\t// in\n    tag_47:\n        /* \"contracts/BatchTransfer.sol\":1236:1242  _value */\n      dup6\n        /* \"contracts/BatchTransfer.sol\":1243:1244  i */\n      dup3\n        /* \"contracts/BatchTransfer.sol\":1236:1245  _value[i] */\n      dup2\n      mload\n      dup2\n      lt\n      tag_49\n      jumpi\n      tag_50\n      tag_41\n      jump\t// in\n    tag_50:\n    tag_49:\n      0x20\n      mul\n      0x20\n      add\n      add\n        /* \"contracts/BatchTransfer.sol\":1236:1276  _value[i] = token.balanceOf(_account[i]) */\n      dup2\n      dup2\n      mstore\n      pop\n      pop\n        /* \"contracts/BatchTransfer.sol\":1309:1314  token */\n      dup3\n        /* \"contracts/BatchTransfer.sol\":1309:1324  token.allowance */\n      0xffffffffffffffffffffffffffffffffffffffff\n      and\n      0xdd62ed3e\n        /* \"contracts/BatchTransfer.sol\":1325:1333  _account */\n      dup8\n        /* \"contracts/BatchTransfer.sol\":1334:1335  i */\n      dup4\n        /* \"contracts/BatchTransfer.sol\":1325:1336  _account[i] */\n      dup2\n      mload\n      dup2\n      lt\n      tag_51\n      jumpi\n      tag_52\n      tag_41\n      jump\t// in\n    tag_52:\n    tag_51:\n      0x20\n      mul\n      0x20\n      add\n      add\n      mload\n        /* \"contracts/BatchTransfer.sol\":1337:1351  _routerAddress */\n      dup10\n        /* \"contracts/BatchTransfer.sol\":1309:1352  token.allowance(_account[i],_routerAddress) */\n      mload(0x40)\n      dup4\n      0xffffffff\n      and\n      0xe0\n      shl\n      dup2\n      mstore\n      0x04\n      add\n      tag_53\n      swap3\n      swap2\n      swap1\n      tag_54\n      jump\t// in\n    tag_53:\n      0x20\n      mload(0x40)\n      dup1\n      dup4\n      sub\n      dup2\n      dup7\n      dup1\n      extcodesize\n      iszero\n      dup1\n      iszero\n      tag_55\n      jumpi\n      0x00\n      dup1\n      revert\n    tag_55:\n      pop\n      gas\n      staticcall\n      iszero\n      dup1\n      iszero\n      tag_57\n      jumpi\n      returndatasize\n      0x00\n      dup1\n      returndatacopy\n      revert(0x00, returndatasize)\n    tag_57:\n      pop\n      pop\n      pop\n      pop\n      mload(0x40)\n      returndatasize\n      not(0x1f)\n      0x1f\n      dup3\n      add\n      and\n      dup3\n      add\n      dup1\n      0x40\n      mstore\n      pop\n      dup2\n      add\n      swap1\n      tag_58\n      swap2\n      swap1\n      tag_48\n      jump\t// in\n    tag_58:\n        /* \"contracts/BatchTransfer.sol\":1290:1303  _approveValue */\n      dup5\n        /* \"contracts/BatchTransfer.sol\":1304:1305  i */\n      dup3\n        /* \"contracts/BatchTransfer.sol\":1290:1306  _approveValue[i] */\n      dup2\n      mload\n      dup2\n      lt\n      tag_59\n      jumpi\n      tag_60\n      tag_41\n      jump\t// in\n    tag_60:\n    tag_59:\n      0x20\n      mul\n      0x20\n      add\n      add\n        /* \"contracts/BatchTransfer.sol\":1290:1352  _approveValue[i] = token.allowance(_account[i],_routerAddress) */\n      dup2\n      dup2\n      mstore\n      pop\n      pop\n        /* \"contracts/BatchTransfer.sol\":1218:1221  i++ */\n      dup1\n      dup1\n      tag_61\n      swap1\n      tag_62\n      jump\t// in\n    tag_61:\n      swap2\n      pop\n      pop\n        /* \"contracts/BatchTransfer.sol\":1194:1363  for(uint i = 0;i<length;i++){... */\n      jump(tag_36)\n    tag_37:\n      pop\n        /* \"contracts/BatchTransfer.sol\":1015:1369  {   ... */\n      pop\n      pop\n        /* \"contracts/BatchTransfer.sol\":788:1369  function batchGetValue(... */\n      swap4\n      pop\n      swap4\n      swap2\n      pop\n      pop\n      jump\t// out\n        /* \"contracts/BatchTransfer.sol\":536:782  function batchTransferETH(address[] memory _address) public payable {... */\n    tag_16:\n        /* \"contracts/BatchTransfer.sol\":614:628  uint256 amount */\n      0x00\n        /* \"contracts/BatchTransfer.sol\":643:651  _address */\n      dup2\n        /* \"contracts/BatchTransfer.sol\":643:658  _address.length */\n      mload\n        /* \"contracts/BatchTransfer.sol\":631:640  msg.value */\n      callvalue\n        /* \"contracts/BatchTransfer.sol\":631:658  msg.value / _address.length */\n      tag_64\n      swap2\n      swap1\n      tag_65\n      jump\t// in\n    tag_64:\n        /* \"contracts/BatchTransfer.sol\":614:658  uint256 amount = msg.value / _address.length */\n      swap1\n      pop\n        /* \"contracts/BatchTransfer.sol\":673:682  uint256 i */\n      0x00\n        /* \"contracts/BatchTransfer.sol\":668:776  for (uint256 i = 0; i < _address.length; i++) {... */\n    tag_66:\n        /* \"contracts/BatchTransfer.sol\":692:700  _address */\n      dup3\n        /* \"contracts/BatchTransfer.sol\":692:707  _address.length */\n      mload\n        /* \"contracts/BatchTransfer.sol\":688:689  i */\n      dup2\n        /* \"contracts/BatchTransfer.sol\":688:707  i < _address.length */\n      lt\n        /* \"contracts/BatchTransfer.sol\":668:776  for (uint256 i = 0; i < _address.length; i++) {... */\n      iszero\n      tag_67\n      jumpi\n        /* \"contracts/BatchTransfer.sol\":736:744  _address */\n      dup3\n        /* \"contracts/BatchTransfer.sol\":745:746  i */\n      dup2\n        /* \"contracts/BatchTransfer.sol\":736:747  _address[i] */\n      dup2\n      mload\n      dup2\n      lt\n      tag_69\n      jumpi\n      tag_70\n      tag_41\n      jump\t// in\n    tag_70:\n    tag_69:\n      0x20\n      mul\n      0x20\n      add\n      add\n      mload\n        /* \"contracts/BatchTransfer.sol\":728:757  payable(_address[i]).transfer */\n      0xffffffffffffffffffffffffffffffffffffffff\n      and\n        /* \"contracts/BatchTransfer.sol\":728:765  payable(_address[i]).transfer(amount) */\n      0x08fc\n        /* \"contracts/BatchTransfer.sol\":758:764  amount */\n      dup4\n        /* \"contracts/BatchTransfer.sol\":728:765  payable(_address[i]).transfer(amount) */\n      swap1\n      dup2\n      iszero\n      mul\n      swap1\n      mload(0x40)\n      0x00\n      mload(0x40)\n      dup1\n      dup4\n      sub\n      dup2\n      dup6\n      dup9\n      dup9\n      call\n      swap4\n      pop\n      pop\n      pop\n      pop\n      iszero\n      dup1\n      iszero\n      tag_72\n      jumpi\n      returndatasize\n      0x00\n      dup1\n      returndatacopy\n      revert(0x00, returndatasize)\n    tag_72:\n      pop\n        /* \"contracts/BatchTransfer.sol\":709:712  i++ */\n      dup1\n      dup1\n      tag_73\n      swap1\n      tag_62\n      jump\t// in\n    tag_73:\n      swap2\n      pop\n      pop\n        /* \"contracts/BatchTransfer.sol\":668:776  for (uint256 i = 0; i < _address.length; i++) {... */\n      jump(tag_66)\n    tag_67:\n      pop\n        /* \"contracts/BatchTransfer.sol\":604:782  {... */\n      pop\n        /* \"contracts/BatchTransfer.sol\":536:782  function batchTransferETH(address[] memory _address) public payable {... */\n      pop\n      jump\t// out\n        /* \"contracts/BatchTransfer.sol\":1374:1700  function batchGetETHValue(... */\n    tag_20:\n        /* \"contracts/BatchTransfer.sol\":1486:1509  uint[] memory _ETHvalue */\n      0x60\n        /* \"contracts/BatchTransfer.sol\":1528:1539  uint length */\n      0x00\n        /* \"contracts/BatchTransfer.sol\":1542:1550  _account */\n      dup3\n        /* \"contracts/BatchTransfer.sol\":1542:1557  _account.length */\n      mload\n        /* \"contracts/BatchTransfer.sol\":1528:1557  uint length = _account.length */\n      swap1\n      pop\n        /* \"contracts/BatchTransfer.sol\":1590:1596  length */\n      dup1\n        /* \"contracts/BatchTransfer.sol\":1579:1597  new uint[](length) */\n      0xffffffffffffffff\n      dup2\n      gt\n      iszero\n      tag_75\n      jumpi\n      tag_76\n      tag_31\n      jump\t// in\n    tag_76:\n    tag_75:\n      mload(0x40)\n      swap1\n      dup1\n      dup3\n      mstore\n      dup1\n      0x20\n      mul\n      0x20\n      add\n      dup3\n      add\n      0x40\n      mstore\n      dup1\n      iszero\n      tag_77\n      jumpi\n      dup2\n      0x20\n      add\n      0x20\n      dup3\n      mul\n      dup1\n      calldatasize\n      dup4\n      calldatacopy\n      dup1\n      dup3\n      add\n      swap2\n      pop\n      pop\n      swap1\n      pop\n    tag_77:\n      pop\n        /* \"contracts/BatchTransfer.sol\":1567:1597  _ETHvalue = new uint[](length) */\n      swap2\n      pop\n        /* \"contracts/BatchTransfer.sol\":1611:1617  uint i */\n      0x00\n        /* \"contracts/BatchTransfer.sol\":1607:1694  for(uint i = 0;i<length;i++){... */\n    tag_78:\n        /* \"contracts/BatchTransfer.sol\":1624:1630  length */\n      dup2\n        /* \"contracts/BatchTransfer.sol\":1622:1623  i */\n      dup2\n        /* \"contracts/BatchTransfer.sol\":1622:1630  i<length */\n      lt\n        /* \"contracts/BatchTransfer.sol\":1607:1694  for(uint i = 0;i<length;i++){... */\n      iszero\n      tag_79\n      jumpi\n        /* \"contracts/BatchTransfer.sol\":1664:1672  _account */\n      dup4\n        /* \"contracts/BatchTransfer.sol\":1673:1674  i */\n      dup2\n        /* \"contracts/BatchTransfer.sol\":1664:1675  _account[i] */\n      dup2\n      mload\n      dup2\n      lt\n      tag_81\n      jumpi\n      tag_82\n      tag_41\n      jump\t// in\n    tag_82:\n    tag_81:\n      0x20\n      mul\n      0x20\n      add\n      add\n      mload\n        /* \"contracts/BatchTransfer.sol\":1664:1683  _account[i].balance */\n      0xffffffffffffffffffffffffffffffffffffffff\n      and\n      balance\n        /* \"contracts/BatchTransfer.sol\":1649:1658  _ETHvalue */\n      dup4\n        /* \"contracts/BatchTransfer.sol\":1659:1660  i */\n      dup3\n        /* \"contracts/BatchTransfer.sol\":1649:1661  _ETHvalue[i] */\n      dup2\n      mload\n      dup2\n      lt\n      tag_83\n      jumpi\n      tag_84\n      tag_41\n      jump\t// in\n    tag_84:\n    tag_83:\n      0x20\n      mul\n      0x20\n      add\n      add\n        /* \"contracts/BatchTransfer.sol\":1649:1683  _ETHvalue[i] = _account[i].balance */\n      dup2\n      dup2\n      mstore\n      pop\n      pop\n        /* \"contracts/BatchTransfer.sol\":1631:1634  i++ */\n      dup1\n      dup1\n      tag_85\n      swap1\n      tag_62\n      jump\t// in\n    tag_85:\n      swap2\n      pop\n      pop\n        /* \"contracts/BatchTransfer.sol\":1607:1694  for(uint i = 0;i<length;i++){... */\n      jump(tag_78)\n    tag_79:\n      pop\n        /* \"contracts/BatchTransfer.sol\":1515:1700  {   ... */\n      pop\n        /* \"contracts/BatchTransfer.sol\":1374:1700  function batchGetETHValue(... */\n      swap2\n      swap1\n      pop\n      jump\t// out\n        /* \"contracts/BatchTransfer.sol\":228:530  function batchTransferERC20(... */\n    tag_27:\n        /* \"contracts/BatchTransfer.sol\":363:375  IERC20 token */\n      0x00\n        /* \"contracts/BatchTransfer.sol\":385:391  _token */\n      dup4\n        /* \"contracts/BatchTransfer.sol\":363:392  IERC20 token = IERC20(_token) */\n      swap1\n      pop\n        /* \"contracts/BatchTransfer.sol\":407:416  uint256 i */\n      0x00\n        /* \"contracts/BatchTransfer.sol\":402:524  for (uint256 i = 0; i < _address.length; i++) {... */\n    tag_87:\n        /* \"contracts/BatchTransfer.sol\":426:434  _address */\n      dup4\n        /* \"contracts/BatchTransfer.sol\":426:441  _address.length */\n      mload\n        /* \"contracts/BatchTransfer.sol\":422:423  i */\n      dup2\n        /* \"contracts/BatchTransfer.sol\":422:441  i < _address.length */\n      lt\n        /* \"contracts/BatchTransfer.sol\":402:524  for (uint256 i = 0; i < _address.length; i++) {... */\n      iszero\n      tag_88\n      jumpi\n        /* \"contracts/BatchTransfer.sol\":462:467  token */\n      dup2\n        /* \"contracts/BatchTransfer.sol\":462:480  token.transferFrom */\n      0xffffffffffffffffffffffffffffffffffffffff\n      and\n      0x23b872dd\n        /* \"contracts/BatchTransfer.sol\":481:491  msg.sender */\n      caller\n        /* \"contracts/BatchTransfer.sol\":492:500  _address */\n      dup7\n        /* \"contracts/BatchTransfer.sol\":501:502  i */\n      dup5\n        /* \"contracts/BatchTransfer.sol\":492:503  _address[i] */\n      dup2\n      mload\n      dup2\n      lt\n      tag_90\n      jumpi\n      tag_91\n      tag_41\n      jump\t// in\n    tag_91:\n    tag_90:\n      0x20\n      mul\n      0x20\n      add\n      add\n      mload\n        /* \"contracts/BatchTransfer.sol\":505:512  _amount */\n      dup7\n        /* \"contracts/BatchTransfer.sol\":462:513  token.transferFrom(msg.sender,_address[i], _amount) */\n      mload(0x40)\n      dup5\n      0xffffffff\n      and\n      0xe0\n      shl\n      dup2\n      mstore\n      0x04\n      add\n      tag_92\n      swap4\n      swap3\n      swap2\n      swap1\n      tag_93\n      jump\t// in\n    tag_92:\n      0x20\n      mload(0x40)\n      dup1\n      dup4\n      sub\n      dup2\n      0x00\n      dup8\n      dup1\n      extcodesize\n      iszero\n      dup1\n      iszero\n      tag_94\n      jumpi\n      0x00\n      dup1\n      revert\n    tag_94:\n      pop\n      gas\n      call\n      iszero\n      dup1\n      iszero\n      tag_96\n      jumpi\n      returndatasize\n      0x00\n      dup1\n      returndatacopy\n      revert(0x00, returndatasize)\n    tag_96:\n      pop\n      pop\n      pop\n      pop\n      mload(0x40)\n      returndatasize\n      not(0x1f)\n      0x1f\n      dup3\n      add\n      and\n      dup3\n      add\n      dup1\n      0x40\n      mstore\n      pop\n      dup2\n      add\n      swap1\n      tag_97\n      swap2\n      swap1\n      tag_98\n      jump\t// in\n    tag_97:\n      pop\n        /* \"contracts/BatchTransfer.sol\":443:446  i++ */\n      dup1\n      dup1\n      tag_99\n      swap1\n      tag_62\n      jump\t// in\n    tag_99:\n      swap2\n      pop\n      pop\n        /* \"contracts/BatchTransfer.sol\":402:524  for (uint256 i = 0; i < _address.length; i++) {... */\n      jump(tag_87)\n    tag_88:\n      pop\n        /* \"contracts/BatchTransfer.sol\":353:530  {... */\n      pop\n        /* \"contracts/BatchTransfer.sol\":228:530  function batchTransferERC20(... */\n      pop\n      pop\n      pop\n      jump\t// out\n        /* \"#utility.yul\":24:746   */\n    tag_101:\n        /* \"#utility.yul\":120:125   */\n      0x00\n        /* \"#utility.yul\":145:226   */\n      tag_103\n        /* \"#utility.yul\":161:225   */\n      tag_104\n        /* \"#utility.yul\":218:224   */\n      dup5\n        /* \"#utility.yul\":161:225   */\n      tag_105\n      jump\t// in\n    tag_104:\n        /* \"#utility.yul\":145:226   */\n      tag_106\n      jump\t// in\n    tag_103:\n        /* \"#utility.yul\":136:226   */\n      swap1\n      pop\n        /* \"#utility.yul\":246:251   */\n      dup1\n        /* \"#utility.yul\":275:281   */\n      dup4\n        /* \"#utility.yul\":268:273   */\n      dup3\n        /* \"#utility.yul\":261:282   */\n      mstore\n        /* \"#utility.yul\":309:313   */\n      0x20\n        /* \"#utility.yul\":302:307   */\n      dup3\n        /* \"#utility.yul\":298:314   */\n      add\n        /* \"#utility.yul\":291:314   */\n      swap1\n      pop\n        /* \"#utility.yul\":335:341   */\n      dup3\n        /* \"#utility.yul\":385:388   */\n      dup6\n        /* \"#utility.yul\":377:381   */\n      0x20\n        /* \"#utility.yul\":369:375   */\n      dup7\n        /* \"#utility.yul\":365:382   */\n      mul\n        /* \"#utility.yul\":360:363   */\n      dup3\n        /* \"#utility.yul\":356:383   */\n      add\n        /* \"#utility.yul\":353:389   */\n      gt\n        /* \"#utility.yul\":350:493   */\n      iszero\n      tag_107\n      jumpi\n        /* \"#utility.yul\":404:483   */\n      tag_108\n      tag_109\n      jump\t// in\n    tag_108:\n        /* \"#utility.yul\":350:493   */\n    tag_107:\n        /* \"#utility.yul\":517:518   */\n      0x00\n        /* \"#utility.yul\":502:740   */\n    tag_110:\n        /* \"#utility.yul\":527:533   */\n      dup6\n        /* \"#utility.yul\":524:525   */\n      dup2\n        /* \"#utility.yul\":521:534   */\n      lt\n        /* \"#utility.yul\":502:740   */\n      iszero\n      tag_112\n      jumpi\n        /* \"#utility.yul\":595:598   */\n      dup2\n        /* \"#utility.yul\":624:661   */\n      tag_113\n        /* \"#utility.yul\":657:660   */\n      dup9\n        /* \"#utility.yul\":645:655   */\n      dup3\n        /* \"#utility.yul\":624:661   */\n      tag_114\n      jump\t// in\n    tag_113:\n        /* \"#utility.yul\":619:622   */\n      dup5\n        /* \"#utility.yul\":612:662   */\n      mstore\n        /* \"#utility.yul\":691:695   */\n      0x20\n        /* \"#utility.yul\":686:689   */\n      dup5\n        /* \"#utility.yul\":682:696   */\n      add\n        /* \"#utility.yul\":675:696   */\n      swap4\n      pop\n        /* \"#utility.yul\":725:729   */\n      0x20\n        /* \"#utility.yul\":720:723   */\n      dup4\n        /* \"#utility.yul\":716:730   */\n      add\n        /* \"#utility.yul\":709:730   */\n      swap3\n      pop\n        /* \"#utility.yul\":562:740   */\n      pop\n        /* \"#utility.yul\":549:550   */\n      0x01\n        /* \"#utility.yul\":546:547   */\n      dup2\n        /* \"#utility.yul\":542:551   */\n      add\n        /* \"#utility.yul\":537:551   */\n      swap1\n      pop\n        /* \"#utility.yul\":502:740   */\n      jump(tag_110)\n    tag_112:\n        /* \"#utility.yul\":506:520   */\n      pop\n        /* \"#utility.yul\":126:746   */\n      pop\n      pop\n        /* \"#utility.yul\":24:746   */\n      swap4\n      swap3\n      pop\n      pop\n      pop\n      jump\t// out\n        /* \"#utility.yul\":752:891   */\n    tag_114:\n        /* \"#utility.yul\":798:803   */\n      0x00\n        /* \"#utility.yul\":836:842   */\n      dup2\n        /* \"#utility.yul\":823:843   */\n      calldataload\n        /* \"#utility.yul\":814:843   */\n      swap1\n      pop\n        /* \"#utility.yul\":852:885   */\n      tag_116\n        /* \"#utility.yul\":879:884   */\n      dup2\n        /* \"#utility.yul\":852:885   */\n      tag_117\n      jump\t// in\n    tag_116:\n        /* \"#utility.yul\":752:891   */\n      swap3\n      swap2\n      pop\n      pop\n      jump\t// out\n        /* \"#utility.yul\":914:1284   */\n    tag_118:\n        /* \"#utility.yul\":985:990   */\n      0x00\n        /* \"#utility.yul\":1034:1037   */\n      dup3\n        /* \"#utility.yul\":1027:1031   */\n      0x1f\n        /* \"#utility.yul\":1019:1025   */\n      dup4\n        /* \"#utility.yul\":1015:1032   */\n      add\n        /* \"#utility.yul\":1011:1038   */\n      slt\n        /* \"#utility.yul\":1001:1123   */\n      tag_120\n      jumpi\n        /* \"#utility.yul\":1042:1121   */\n      tag_121\n      tag_122\n      jump\t// in\n    tag_121:\n        /* \"#utility.yul\":1001:1123   */\n    tag_120:\n        /* \"#utility.yul\":1159:1165   */\n      dup2\n        /* \"#utility.yul\":1146:1166   */\n      calldataload\n        /* \"#utility.yul\":1184:1278   */\n      tag_123\n        /* \"#utility.yul\":1274:1277   */\n      dup5\n        /* \"#utility.yul\":1266:1272   */\n      dup3\n        /* \"#utility.yul\":1259:1263   */\n      0x20\n        /* \"#utility.yul\":1251:1257   */\n      dup7\n        /* \"#utility.yul\":1247:1264   */\n      add\n        /* \"#utility.yul\":1184:1278   */\n      tag_101\n      jump\t// in\n    tag_123:\n        /* \"#utility.yul\":1175:1278   */\n      swap2\n      pop\n        /* \"#utility.yul\":991:1284   */\n      pop\n        /* \"#utility.yul\":914:1284   */\n      swap3\n      swap2\n      pop\n      pop\n      jump\t// out\n        /* \"#utility.yul\":1290:1427   */\n    tag_124:\n        /* \"#utility.yul\":1344:1349   */\n      0x00\n        /* \"#utility.yul\":1375:1381   */\n      dup2\n        /* \"#utility.yul\":1369:1382   */\n      mload\n        /* \"#utility.yul\":1360:1382   */\n      swap1\n      pop\n        /* \"#utility.yul\":1391:1421   */\n      tag_126\n        /* \"#utility.yul\":1415:1420   */\n      dup2\n        /* \"#utility.yul\":1391:1421   */\n      tag_127\n      jump\t// in\n    tag_126:\n        /* \"#utility.yul\":1290:1427   */\n      swap3\n      swap2\n      pop\n      pop\n      jump\t// out\n        /* \"#utility.yul\":1433:1572   */\n    tag_128:\n        /* \"#utility.yul\":1479:1484   */\n      0x00\n        /* \"#utility.yul\":1517:1523   */\n      dup2\n        /* \"#utility.yul\":1504:1524   */\n      calldataload\n        /* \"#utility.yul\":1495:1524   */\n      swap1\n      pop\n        /* \"#utility.yul\":1533:1566   */\n      tag_130\n        /* \"#utility.yul\":1560:1565   */\n      dup2\n        /* \"#utility.yul\":1533:1566   */\n      tag_131\n      jump\t// in\n    tag_130:\n        /* \"#utility.yul\":1433:1572   */\n      swap3\n      swap2\n      pop\n      pop\n      jump\t// out\n        /* \"#utility.yul\":1578:1721   */\n    tag_132:\n        /* \"#utility.yul\":1635:1640   */\n      0x00\n        /* \"#utility.yul\":1666:1672   */\n      dup2\n        /* \"#utility.yul\":1660:1673   */\n      mload\n        /* \"#utility.yul\":1651:1673   */\n      swap1\n      pop\n        /* \"#utility.yul\":1682:1715   */\n      tag_134\n        /* \"#utility.yul\":1709:1714   */\n      dup2\n        /* \"#utility.yul\":1682:1715   */\n      tag_131\n      jump\t// in\n    tag_134:\n        /* \"#utility.yul\":1578:1721   */\n      swap3\n      swap2\n      pop\n      pop\n      jump\t// out\n        /* \"#utility.yul\":1727:2556   */\n    tag_9:\n        /* \"#utility.yul\":1829:1835   */\n      0x00\n        /* \"#utility.yul\":1837:1843   */\n      dup1\n        /* \"#utility.yul\":1845:1851   */\n      0x00\n        /* \"#utility.yul\":1894:1896   */\n      0x60\n        /* \"#utility.yul\":1882:1891   */\n      dup5\n        /* \"#utility.yul\":1873:1880   */\n      dup7\n        /* \"#utility.yul\":1869:1892   */\n      sub\n        /* \"#utility.yul\":1865:1897   */\n      slt\n        /* \"#utility.yul\":1862:1981   */\n      iszero\n      tag_136\n      jumpi\n        /* \"#utility.yul\":1900:1979   */\n      tag_137\n      tag_138\n      jump\t// in\n    tag_137:\n        /* \"#utility.yul\":1862:1981   */\n    tag_136:\n        /* \"#utility.yul\":2020:2021   */\n      0x00\n        /* \"#utility.yul\":2045:2098   */\n      tag_139\n        /* \"#utility.yul\":2090:2097   */\n      dup7\n        /* \"#utility.yul\":2081:2087   */\n      dup3\n        /* \"#utility.yul\":2070:2079   */\n      dup8\n        /* \"#utility.yul\":2066:2088   */\n      add\n        /* \"#utility.yul\":2045:2098   */\n      tag_114\n      jump\t// in\n    tag_139:\n        /* \"#utility.yul\":2035:2098   */\n      swap4\n      pop\n        /* \"#utility.yul\":1991:2108   */\n      pop\n        /* \"#utility.yul\":2147:2149   */\n      0x20\n        /* \"#utility.yul\":2173:2226   */\n      tag_140\n        /* \"#utility.yul\":2218:2225   */\n      dup7\n        /* \"#utility.yul\":2209:2215   */\n      dup3\n        /* \"#utility.yul\":2198:2207   */\n      dup8\n        /* \"#utility.yul\":2194:2216   */\n      add\n        /* \"#utility.yul\":2173:2226   */\n      tag_114\n      jump\t// in\n    tag_140:\n        /* \"#utility.yul\":2163:2226   */\n      swap3\n      pop\n        /* \"#utility.yul\":2118:2236   */\n      pop\n        /* \"#utility.yul\":2303:2305   */\n      0x40\n        /* \"#utility.yul\":2292:2301   */\n      dup5\n        /* \"#utility.yul\":2288:2306   */\n      add\n        /* \"#utility.yul\":2275:2307   */\n      calldataload\n        /* \"#utility.yul\":2334:2352   */\n      0xffffffffffffffff\n        /* \"#utility.yul\":2326:2332   */\n      dup2\n        /* \"#utility.yul\":2323:2353   */\n      gt\n        /* \"#utility.yul\":2320:2437   */\n      iszero\n      tag_141\n      jumpi\n        /* \"#utility.yul\":2356:2435   */\n      tag_142\n      tag_143\n      jump\t// in\n    tag_142:\n        /* \"#utility.yul\":2320:2437   */\n    tag_141:\n        /* \"#utility.yul\":2461:2539   */\n      tag_144\n        /* \"#utility.yul\":2531:2538   */\n      dup7\n        /* \"#utility.yul\":2522:2528   */\n      dup3\n        /* \"#utility.yul\":2511:2520   */\n      dup8\n        /* \"#utility.yul\":2507:2529   */\n      add\n        /* \"#utility.yul\":2461:2539   */\n      tag_118\n      jump\t// in\n    tag_144:\n        /* \"#utility.yul\":2451:2539   */\n      swap2\n      pop\n        /* \"#utility.yul\":2246:2549   */\n      pop\n        /* \"#utility.yul\":1727:2556   */\n      swap3\n      pop\n      swap3\n      pop\n      swap3\n      jump\t// out\n        /* \"#utility.yul\":2562:3391   */\n    tag_26:\n        /* \"#utility.yul\":2664:2670   */\n      0x00\n        /* \"#utility.yul\":2672:2678   */\n      dup1\n        /* \"#utility.yul\":2680:2686   */\n      0x00\n        /* \"#utility.yul\":2729:2731   */\n      0x60\n        /* \"#utility.yul\":2717:2726   */\n      dup5\n        /* \"#utility.yul\":2708:2715   */\n      dup7\n        /* \"#utility.yul\":2704:2727   */\n      sub\n        /* \"#utility.yul\":2700:2732   */\n      slt\n        /* \"#utility.yul\":2697:2816   */\n      iszero\n      tag_146\n      jumpi\n        /* \"#utility.yul\":2735:2814   */\n      tag_147\n      tag_138\n      jump\t// in\n    tag_147:\n        /* \"#utility.yul\":2697:2816   */\n    tag_146:\n        /* \"#utility.yul\":2855:2856   */\n      0x00\n        /* \"#utility.yul\":2880:2933   */\n      tag_148\n        /* \"#utility.yul\":2925:2932   */\n      dup7\n        /* \"#utility.yul\":2916:2922   */\n      dup3\n        /* \"#utility.yul\":2905:2914   */\n      dup8\n        /* \"#utility.yul\":2901:2923   */\n      add\n        /* \"#utility.yul\":2880:2933   */\n      tag_114\n      jump\t// in\n    tag_148:\n        /* \"#utility.yul\":2870:2933   */\n      swap4\n      pop\n        /* \"#utility.yul\":2826:2943   */\n      pop\n        /* \"#utility.yul\":3010:3012   */\n      0x20\n        /* \"#utility.yul\":2999:3008   */\n      dup5\n        /* \"#utility.yul\":2995:3013   */\n      add\n        /* \"#utility.yul\":2982:3014   */\n      calldataload\n        /* \"#utility.yul\":3041:3059   */\n      0xffffffffffffffff\n        /* \"#utility.yul\":3033:3039   */\n      dup2\n        /* \"#utility.yul\":3030:3060   */\n      gt\n        /* \"#utility.yul\":3027:3144   */\n      iszero\n      tag_149\n      jumpi\n        /* \"#utility.yul\":3063:3142   */\n      tag_150\n      tag_143\n      jump\t// in\n    tag_150:\n        /* \"#utility.yul\":3027:3144   */\n    tag_149:\n        /* \"#utility.yul\":3168:3246   */\n      tag_151\n        /* \"#utility.yul\":3238:3245   */\n      dup7\n        /* \"#utility.yul\":3229:3235   */\n      dup3\n        /* \"#utility.yul\":3218:3227   */\n      dup8\n        /* \"#utility.yul\":3214:3236   */\n      add\n        /* \"#utility.yul\":3168:3246   */\n      tag_118\n      jump\t// in\n    tag_151:\n        /* \"#utility.yul\":3158:3246   */\n      swap3\n      pop\n        /* \"#utility.yul\":2953:3256   */\n      pop\n        /* \"#utility.yul\":3295:3297   */\n      0x40\n        /* \"#utility.yul\":3321:3374   */\n      tag_152\n        /* \"#utility.yul\":3366:3373   */\n      dup7\n        /* \"#utility.yul\":3357:3363   */\n      dup3\n        /* \"#utility.yul\":3346:3355   */\n      dup8\n        /* \"#utility.yul\":3342:3364   */\n      add\n        /* \"#utility.yul\":3321:3374   */\n      tag_128\n      jump\t// in\n    tag_152:\n        /* \"#utility.yul\":3311:3374   */\n      swap2\n      pop\n        /* \"#utility.yul\":3266:3384   */\n      pop\n        /* \"#utility.yul\":2562:3391   */\n      swap3\n      pop\n      swap3\n      pop\n      swap3\n      jump\t// out\n        /* \"#utility.yul\":3397:3936   */\n    tag_15:\n        /* \"#utility.yul\":3481:3487   */\n      0x00\n        /* \"#utility.yul\":3530:3532   */\n      0x20\n        /* \"#utility.yul\":3518:3527   */\n      dup3\n        /* \"#utility.yul\":3509:3516   */\n      dup5\n        /* \"#utility.yul\":3505:3528   */\n      sub\n        /* \"#utility.yul\":3501:3533   */\n      slt\n        /* \"#utility.yul\":3498:3617   */\n      iszero\n      tag_154\n      jumpi\n        /* \"#utility.yul\":3536:3615   */\n      tag_155\n      tag_138\n      jump\t// in\n    tag_155:\n        /* \"#utility.yul\":3498:3617   */\n    tag_154:\n        /* \"#utility.yul\":3684:3685   */\n      0x00\n        /* \"#utility.yul\":3673:3682   */\n      dup3\n        /* \"#utility.yul\":3669:3686   */\n      add\n        /* \"#utility.yul\":3656:3687   */\n      calldataload\n        /* \"#utility.yul\":3714:3732   */\n      0xffffffffffffffff\n        /* \"#utility.yul\":3706:3712   */\n      dup2\n        /* \"#utility.yul\":3703:3733   */\n      gt\n        /* \"#utility.yul\":3700:3817   */\n      iszero\n      tag_156\n      jumpi\n        /* \"#utility.yul\":3736:3815   */\n      tag_157\n      tag_143\n      jump\t// in\n    tag_157:\n        /* \"#utility.yul\":3700:3817   */\n    tag_156:\n        /* \"#utility.yul\":3841:3919   */\n      tag_158\n        /* \"#utility.yul\":3911:3918   */\n      dup5\n        /* \"#utility.yul\":3902:3908   */\n      dup3\n        /* \"#utility.yul\":3891:3900   */\n      dup6\n        /* \"#utility.yul\":3887:3909   */\n      add\n        /* \"#utility.yul\":3841:3919   */\n      tag_118\n      jump\t// in\n    tag_158:\n        /* \"#utility.yul\":3831:3919   */\n      swap2\n      pop\n        /* \"#utility.yul\":3627:3929   */\n      pop\n        /* \"#utility.yul\":3397:3936   */\n      swap3\n      swap2\n      pop\n      pop\n      jump\t// out\n        /* \"#utility.yul\":3942:4287   */\n    tag_98:\n        /* \"#utility.yul\":4009:4015   */\n      0x00\n        /* \"#utility.yul\":4058:4060   */\n      0x20\n        /* \"#utility.yul\":4046:4055   */\n      dup3\n        /* \"#utility.yul\":4037:4044   */\n      dup5\n        /* \"#utility.yul\":4033:4056   */\n      sub\n        /* \"#utility.yul\":4029:4061   */\n      slt\n        /* \"#utility.yul\":4026:4145   */\n      iszero\n      tag_160\n      jumpi\n        /* \"#utility.yul\":4064:4143   */\n      tag_161\n      tag_138\n      jump\t// in\n    tag_161:\n        /* \"#utility.yul\":4026:4145   */\n    tag_160:\n        /* \"#utility.yul\":4184:4185   */\n      0x00\n        /* \"#utility.yul\":4209:4270   */\n      tag_162\n        /* \"#utility.yul\":4262:4269   */\n      dup5\n        /* \"#utility.yul\":4253:4259   */\n      dup3\n        /* \"#utility.yul\":4242:4251   */\n      dup6\n        /* \"#utility.yul\":4238:4260   */\n      add\n        /* \"#utility.yul\":4209:4270   */\n      tag_124\n      jump\t// in\n    tag_162:\n        /* \"#utility.yul\":4199:4270   */\n      swap2\n      pop\n        /* \"#utility.yul\":4155:4280   */\n      pop\n        /* \"#utility.yul\":3942:4287   */\n      swap3\n      swap2\n      pop\n      pop\n      jump\t// out\n        /* \"#utility.yul\":4293:4644   */\n    tag_48:\n        /* \"#utility.yul\":4363:4369   */\n      0x00\n        /* \"#utility.yul\":4412:4414   */\n      0x20\n        /* \"#utility.yul\":4400:4409   */\n      dup3\n        /* \"#utility.yul\":4391:4398   */\n      dup5\n        /* \"#utility.yul\":4387:4410   */\n      sub\n        /* \"#utility.yul\":4383:4415   */\n      slt\n        /* \"#utility.yul\":4380:4499   */\n      iszero\n      tag_164\n      jumpi\n        /* \"#utility.yul\":4418:4497   */\n      tag_165\n      tag_138\n      jump\t// in\n    tag_165:\n        /* \"#utility.yul\":4380:4499   */\n    tag_164:\n        /* \"#utility.yul\":4538:4539   */\n      0x00\n        /* \"#utility.yul\":4563:4627   */\n      tag_166\n        /* \"#utility.yul\":4619:4626   */\n      dup5\n        /* \"#utility.yul\":4610:4616   */\n      dup3\n        /* \"#utility.yul\":4599:4608   */\n      dup6\n        /* \"#utility.yul\":4595:4617   */\n      add\n        /* \"#utility.yul\":4563:4627   */\n      tag_132\n      jump\t// in\n    tag_166:\n        /* \"#utility.yul\":4553:4627   */\n      swap2\n      pop\n        /* \"#utility.yul\":4509:4637   */\n      pop\n        /* \"#utility.yul\":4293:4644   */\n      swap3\n      swap2\n      pop\n      pop\n      jump\t// out\n        /* \"#utility.yul\":4650:4829   */\n    tag_167:\n        /* \"#utility.yul\":4719:4729   */\n      0x00\n        /* \"#utility.yul\":4740:4786   */\n      tag_169\n        /* \"#utility.yul\":4782:4785   */\n      dup4\n        /* \"#utility.yul\":4774:4780   */\n      dup4\n        /* \"#utility.yul\":4740:4786   */\n      tag_170\n      jump\t// in\n    tag_169:\n        /* \"#utility.yul\":4818:4822   */\n      0x20\n        /* \"#utility.yul\":4813:4816   */\n      dup4\n        /* \"#utility.yul\":4809:4823   */\n      add\n        /* \"#utility.yul\":4795:4823   */\n      swap1\n      pop\n        /* \"#utility.yul\":4650:4829   */\n      swap3\n      swap2\n      pop\n      pop\n      jump\t// out\n        /* \"#utility.yul\":4835:4953   */\n    tag_171:\n        /* \"#utility.yul\":4922:4946   */\n      tag_173\n        /* \"#utility.yul\":4940:4945   */\n      dup2\n        /* \"#utility.yul\":4922:4946   */\n      tag_174\n      jump\t// in\n    tag_173:\n        /* \"#utility.yul\":4917:4920   */\n      dup3\n        /* \"#utility.yul\":4910:4947   */\n      mstore\n        /* \"#utility.yul\":4835:4953   */\n      pop\n      pop\n      jump\t// out\n        /* \"#utility.yul\":4989:5721   */\n    tag_175:\n        /* \"#utility.yul\":5108:5111   */\n      0x00\n        /* \"#utility.yul\":5137:5191   */\n      tag_177\n        /* \"#utility.yul\":5185:5190   */\n      dup3\n        /* \"#utility.yul\":5137:5191   */\n      tag_178\n      jump\t// in\n    tag_177:\n        /* \"#utility.yul\":5207:5293   */\n      tag_179\n        /* \"#utility.yul\":5286:5292   */\n      dup2\n        /* \"#utility.yul\":5281:5284   */\n      dup6\n        /* \"#utility.yul\":5207:5293   */\n      tag_180\n      jump\t// in\n    tag_179:\n        /* \"#utility.yul\":5200:5293   */\n      swap4\n      pop\n        /* \"#utility.yul\":5317:5373   */\n      tag_181\n        /* \"#utility.yul\":5367:5372   */\n      dup4\n        /* \"#utility.yul\":5317:5373   */\n      tag_182\n      jump\t// in\n    tag_181:\n        /* \"#utility.yul\":5396:5403   */\n      dup1\n        /* \"#utility.yul\":5427:5428   */\n      0x00\n        /* \"#utility.yul\":5412:5696   */\n    tag_183:\n        /* \"#utility.yul\":5437:5443   */\n      dup4\n        /* \"#utility.yul\":5434:5435   */\n      dup2\n        /* \"#utility.yul\":5431:5444   */\n      lt\n        /* \"#utility.yul\":5412:5696   */\n      iszero\n      tag_185\n      jumpi\n        /* \"#utility.yul\":5513:5519   */\n      dup2\n        /* \"#utility.yul\":5507:5520   */\n      mload\n        /* \"#utility.yul\":5540:5603   */\n      tag_186\n        /* \"#utility.yul\":5599:5602   */\n      dup9\n        /* \"#utility.yul\":5584:5597   */\n      dup3\n        /* \"#utility.yul\":5540:5603   */\n      tag_167\n      jump\t// in\n    tag_186:\n        /* \"#utility.yul\":5533:5603   */\n      swap8\n      pop\n        /* \"#utility.yul\":5626:5686   */\n      tag_187\n        /* \"#utility.yul\":5679:5685   */\n      dup4\n        /* \"#utility.yul\":5626:5686   */\n      tag_188\n      jump\t// in\n    tag_187:\n        /* \"#utility.yul\":5616:5686   */\n      swap3\n      pop\n        /* \"#utility.yul\":5472:5696   */\n      pop\n        /* \"#utility.yul\":5459:5460   */\n      0x01\n        /* \"#utility.yul\":5456:5457   */\n      dup2\n        /* \"#utility.yul\":5452:5461   */\n      add\n        /* \"#utility.yul\":5447:5461   */\n      swap1\n      pop\n        /* \"#utility.yul\":5412:5696   */\n      jump(tag_183)\n    tag_185:\n        /* \"#utility.yul\":5416:5430   */\n      pop\n        /* \"#utility.yul\":5712:5715   */\n      dup6\n        /* \"#utility.yul\":5705:5715   */\n      swap4\n      pop\n        /* \"#utility.yul\":5113:5721   */\n      pop\n      pop\n      pop\n        /* \"#utility.yul\":4989:5721   */\n      swap3\n      swap2\n      pop\n      pop\n      jump\t// out\n        /* \"#utility.yul\":5727:5835   */\n    tag_170:\n        /* \"#utility.yul\":5804:5828   */\n      tag_190\n        /* \"#utility.yul\":5822:5827   */\n      dup2\n        /* \"#utility.yul\":5804:5828   */\n      tag_191\n      jump\t// in\n    tag_190:\n        /* \"#utility.yul\":5799:5802   */\n      dup3\n        /* \"#utility.yul\":5792:5829   */\n      mstore\n        /* \"#utility.yul\":5727:5835   */\n      pop\n      pop\n      jump\t// out\n        /* \"#utility.yul\":5841:5959   */\n    tag_192:\n        /* \"#utility.yul\":5928:5952   */\n      tag_194\n        /* \"#utility.yul\":5946:5951   */\n      dup2\n        /* \"#utility.yul\":5928:5952   */\n      tag_191\n      jump\t// in\n    tag_194:\n        /* \"#utility.yul\":5923:5926   */\n      dup3\n        /* \"#utility.yul\":5916:5953   */\n      mstore\n        /* \"#utility.yul\":5841:5959   */\n      pop\n      pop\n      jump\t// out\n        /* \"#utility.yul\":5965:6187   */\n    tag_43:\n        /* \"#utility.yul\":6058:6062   */\n      0x00\n        /* \"#utility.yul\":6096:6098   */\n      0x20\n        /* \"#utility.yul\":6085:6094   */\n      dup3\n        /* \"#utility.yul\":6081:6099   */\n      add\n        /* \"#utility.yul\":6073:6099   */\n      swap1\n      pop\n        /* \"#utility.yul\":6109:6180   */\n      tag_196\n        /* \"#utility.yul\":6177:6178   */\n      0x00\n        /* \"#utility.yul\":6166:6175   */\n      dup4\n        /* \"#utility.yul\":6162:6179   */\n      add\n        /* \"#utility.yul\":6153:6159   */\n      dup5\n        /* \"#utility.yul\":6109:6180   */\n      tag_171\n      jump\t// in\n    tag_196:\n        /* \"#utility.yul\":5965:6187   */\n      swap3\n      swap2\n      pop\n      pop\n      jump\t// out\n        /* \"#utility.yul\":6193:6525   */\n    tag_54:\n        /* \"#utility.yul\":6314:6318   */\n      0x00\n        /* \"#utility.yul\":6352:6354   */\n      0x40\n        /* \"#utility.yul\":6341:6350   */\n      dup3\n        /* \"#utility.yul\":6337:6355   */\n      add\n        /* \"#utility.yul\":6329:6355   */\n      swap1\n      pop\n        /* \"#utility.yul\":6365:6436   */\n      tag_198\n        /* \"#utility.yul\":6433:6434   */\n      0x00\n        /* \"#utility.yul\":6422:6431   */\n      dup4\n        /* \"#utility.yul\":6418:6435   */\n      add\n        /* \"#utility.yul\":6409:6415   */\n      dup6\n        /* \"#utility.yul\":6365:6436   */\n      tag_171\n      jump\t// in\n    tag_198:\n        /* \"#utility.yul\":6446:6518   */\n      tag_199\n        /* \"#utility.yul\":6514:6516   */\n      0x20\n        /* \"#utility.yul\":6503:6512   */\n      dup4\n        /* \"#utility.yul\":6499:6517   */\n      add\n        /* \"#utility.yul\":6490:6496   */\n      dup5\n        /* \"#utility.yul\":6446:6518   */\n      tag_171\n      jump\t// in\n    tag_199:\n        /* \"#utility.yul\":6193:6525   */\n      swap4\n      swap3\n      pop\n      pop\n      pop\n      jump\t// out\n        /* \"#utility.yul\":6531:6973   */\n    tag_93:\n        /* \"#utility.yul\":6680:6684   */\n      0x00\n        /* \"#utility.yul\":6718:6720   */\n      0x60\n        /* \"#utility.yul\":6707:6716   */\n      dup3\n        /* \"#utility.yul\":6703:6721   */\n      add\n        /* \"#utility.yul\":6695:6721   */\n      swap1\n      pop\n        /* \"#utility.yul\":6731:6802   */\n      tag_201\n        /* \"#utility.yul\":6799:6800   */\n      0x00\n        /* \"#utility.yul\":6788:6797   */\n      dup4\n        /* \"#utility.yul\":6784:6801   */\n      add\n        /* \"#utility.yul\":6775:6781   */\n      dup7\n        /* \"#utility.yul\":6731:6802   */\n      tag_171\n      jump\t// in\n    tag_201:\n        /* \"#utility.yul\":6812:6884   */\n      tag_202\n        /* \"#utility.yul\":6880:6882   */\n      0x20\n        /* \"#utility.yul\":6869:6878   */\n      dup4\n        /* \"#utility.yul\":6865:6883   */\n      add\n        /* \"#utility.yul\":6856:6862   */\n      dup6\n        /* \"#utility.yul\":6812:6884   */\n      tag_171\n      jump\t// in\n    tag_202:\n        /* \"#utility.yul\":6894:6966   */\n      tag_203\n        /* \"#utility.yul\":6962:6964   */\n      0x40\n        /* \"#utility.yul\":6951:6960   */\n      dup4\n        /* \"#utility.yul\":6947:6965   */\n      add\n        /* \"#utility.yul\":6938:6944   */\n      dup5\n        /* \"#utility.yul\":6894:6966   */\n      tag_192\n      jump\t// in\n    tag_203:\n        /* \"#utility.yul\":6531:6973   */\n      swap5\n      swap4\n      pop\n      pop\n      pop\n      pop\n      jump\t// out\n        /* \"#utility.yul\":6979:7352   */\n    tag_22:\n        /* \"#utility.yul\":7122:7126   */\n      0x00\n        /* \"#utility.yul\":7160:7162   */\n      0x20\n        /* \"#utility.yul\":7149:7158   */\n      dup3\n        /* \"#utility.yul\":7145:7163   */\n      add\n        /* \"#utility.yul\":7137:7163   */\n      swap1\n      pop\n        /* \"#utility.yul\":7209:7218   */\n      dup2\n        /* \"#utility.yul\":7203:7207   */\n      dup2\n        /* \"#utility.yul\":7199:7219   */\n      sub\n        /* \"#utility.yul\":7195:7196   */\n      0x00\n        /* \"#utility.yul\":7184:7193   */\n      dup4\n        /* \"#utility.yul\":7180:7197   */\n      add\n        /* \"#utility.yul\":7173:7220   */\n      mstore\n        /* \"#utility.yul\":7237:7345   */\n      tag_205\n        /* \"#utility.yul\":7340:7344   */\n      dup2\n        /* \"#utility.yul\":7331:7337   */\n      dup5\n        /* \"#utility.yul\":7237:7345   */\n      tag_175\n      jump\t// in\n    tag_205:\n        /* \"#utility.yul\":7229:7345   */\n      swap1\n      pop\n        /* \"#utility.yul\":6979:7352   */\n      swap3\n      swap2\n      pop\n      pop\n      jump\t// out\n        /* \"#utility.yul\":7358:7992   */\n    tag_12:\n        /* \"#utility.yul\":7579:7583   */\n      0x00\n        /* \"#utility.yul\":7617:7619   */\n      0x40\n        /* \"#utility.yul\":7606:7615   */\n      dup3\n        /* \"#utility.yul\":7602:7620   */\n      add\n        /* \"#utility.yul\":7594:7620   */\n      swap1\n      pop\n        /* \"#utility.yul\":7666:7675   */\n      dup2\n        /* \"#utility.yul\":7660:7664   */\n      dup2\n        /* \"#utility.yul\":7656:7676   */\n      sub\n        /* \"#utility.yul\":7652:7653   */\n      0x00\n        /* \"#utility.yul\":7641:7650   */\n      dup4\n        /* \"#utility.yul\":7637:7654   */\n      add\n        /* \"#utility.yul\":7630:7677   */\n      mstore\n        /* \"#utility.yul\":7694:7802   */\n      tag_207\n        /* \"#utility.yul\":7797:7801   */\n      dup2\n        /* \"#utility.yul\":7788:7794   */\n      dup6\n        /* \"#utility.yul\":7694:7802   */\n      tag_175\n      jump\t// in\n    tag_207:\n        /* \"#utility.yul\":7686:7802   */\n      swap1\n      pop\n        /* \"#utility.yul\":7849:7858   */\n      dup2\n        /* \"#utility.yul\":7843:7847   */\n      dup2\n        /* \"#utility.yul\":7839:7859   */\n      sub\n        /* \"#utility.yul\":7834:7836   */\n      0x20\n        /* \"#utility.yul\":7823:7832   */\n      dup4\n        /* \"#utility.yul\":7819:7837   */\n      add\n        /* \"#utility.yul\":7812:7860   */\n      mstore\n        /* \"#utility.yul\":7877:7985   */\n      tag_208\n        /* \"#utility.yul\":7980:7984   */\n      dup2\n        /* \"#utility.yul\":7971:7977   */\n      dup5\n        /* \"#utility.yul\":7877:7985   */\n      tag_175\n      jump\t// in\n    tag_208:\n        /* \"#utility.yul\":7869:7985   */\n      swap1\n      pop\n        /* \"#utility.yul\":7358:7992   */\n      swap4\n      swap3\n      pop\n      pop\n      pop\n      jump\t// out\n        /* \"#utility.yul\":7998:8127   */\n    tag_106:\n        /* \"#utility.yul\":8032:8038   */\n      0x00\n        /* \"#utility.yul\":8059:8079   */\n      tag_210\n      tag_211\n      jump\t// in\n    tag_210:\n        /* \"#utility.yul\":8049:8079   */\n      swap1\n      pop\n        /* \"#utility.yul\":8088:8121   */\n      tag_212\n        /* \"#utility.yul\":8116:8120   */\n      dup3\n        /* \"#utility.yul\":8108:8114   */\n      dup3\n        /* \"#utility.yul\":8088:8121   */\n      tag_213\n      jump\t// in\n    tag_212:\n        /* \"#utility.yul\":7998:8127   */\n      swap2\n      swap1\n      pop\n      jump\t// out\n        /* \"#utility.yul\":8133:8208   */\n    tag_211:\n        /* \"#utility.yul\":8166:8172   */\n      0x00\n        /* \"#utility.yul\":8199:8201   */\n      0x40\n        /* \"#utility.yul\":8193:8202   */\n      mload\n        /* \"#utility.yul\":8183:8202   */\n      swap1\n      pop\n        /* \"#utility.yul\":8133:8208   */\n      swap1\n      jump\t// out\n        /* \"#utility.yul\":8214:8525   */\n    tag_105:\n        /* \"#utility.yul\":8291:8295   */\n      0x00\n        /* \"#utility.yul\":8381:8399   */\n      0xffffffffffffffff\n        /* \"#utility.yul\":8373:8379   */\n      dup3\n        /* \"#utility.yul\":8370:8400   */\n      gt\n        /* \"#utility.yul\":8367:8423   */\n      iszero\n      tag_216\n      jumpi\n        /* \"#utility.yul\":8403:8421   */\n      tag_217\n      tag_31\n      jump\t// in\n    tag_217:\n        /* \"#utility.yul\":8367:8423   */\n    tag_216:\n        /* \"#utility.yul\":8453:8457   */\n      0x20\n        /* \"#utility.yul\":8445:8451   */\n      dup3\n        /* \"#utility.yul\":8441:8458   */\n      mul\n        /* \"#utility.yul\":8433:8458   */\n      swap1\n      pop\n        /* \"#utility.yul\":8513:8517   */\n      0x20\n        /* \"#utility.yul\":8507:8511   */\n      dup2\n        /* \"#utility.yul\":8503:8518   */\n      add\n        /* \"#utility.yul\":8495:8518   */\n      swap1\n      pop\n        /* \"#utility.yul\":8214:8525   */\n      swap2\n      swap1\n      pop\n      jump\t// out\n        /* \"#utility.yul\":8531:8663   */\n    tag_182:\n        /* \"#utility.yul\":8598:8602   */\n      0x00\n        /* \"#utility.yul\":8621:8624   */\n      dup2\n        /* \"#utility.yul\":8613:8624   */\n      swap1\n      pop\n        /* \"#utility.yul\":8651:8655   */\n      0x20\n        /* \"#utility.yul\":8646:8649   */\n      dup3\n        /* \"#utility.yul\":8642:8656   */\n      add\n        /* \"#utility.yul\":8634:8656   */\n      swap1\n      pop\n        /* \"#utility.yul\":8531:8663   */\n      swap2\n      swap1\n      pop\n      jump\t// out\n        /* \"#utility.yul\":8669:8783   */\n    tag_178:\n        /* \"#utility.yul\":8736:8742   */\n      0x00\n        /* \"#utility.yul\":8770:8775   */\n      dup2\n        /* \"#utility.yul\":8764:8776   */\n      mload\n        /* \"#utility.yul\":8754:8776   */\n      swap1\n      pop\n        /* \"#utility.yul\":8669:8783   */\n      swap2\n      swap1\n      pop\n      jump\t// out\n        /* \"#utility.yul\":8789:8902   */\n    tag_188:\n        /* \"#utility.yul\":8859:8863   */\n      0x00\n        /* \"#utility.yul\":8891:8895   */\n      0x20\n        /* \"#utility.yul\":8886:8889   */\n      dup3\n        /* \"#utility.yul\":8882:8896   */\n      add\n        /* \"#utility.yul\":8874:8896   */\n      swap1\n      pop\n        /* \"#utility.yul\":8789:8902   */\n      swap2\n      swap1\n      pop\n      jump\t// out\n        /* \"#utility.yul\":8908:9092   */\n    tag_180:\n        /* \"#utility.yul\":9007:9018   */\n      0x00\n        /* \"#utility.yul\":9041:9047   */\n      dup3\n        /* \"#utility.yul\":9036:9039   */\n      dup3\n        /* \"#utility.yul\":9029:9048   */\n      mstore\n        /* \"#utility.yul\":9081:9085   */\n      0x20\n        /* \"#utility.yul\":9076:9079   */\n      dup3\n        /* \"#utility.yul\":9072:9086   */\n      add\n        /* \"#utility.yul\":9057:9086   */\n      swap1\n      pop\n        /* \"#utility.yul\":8908:9092   */\n      swap3\n      swap2\n      pop\n      pop\n      jump\t// out\n        /* \"#utility.yul\":9098:9283   */\n    tag_65:\n        /* \"#utility.yul\":9138:9139   */\n      0x00\n        /* \"#utility.yul\":9155:9175   */\n      tag_223\n        /* \"#utility.yul\":9173:9174   */\n      dup3\n        /* \"#utility.yul\":9155:9175   */\n      tag_191\n      jump\t// in\n    tag_223:\n        /* \"#utility.yul\":9150:9175   */\n      swap2\n      pop\n        /* \"#utility.yul\":9189:9209   */\n      tag_224\n        /* \"#utility.yul\":9207:9208   */\n      dup4\n        /* \"#utility.yul\":9189:9209   */\n      tag_191\n      jump\t// in\n    tag_224:\n        /* \"#utility.yul\":9184:9209   */\n      swap3\n      pop\n        /* \"#utility.yul\":9228:9229   */\n      dup3\n        /* \"#utility.yul\":9218:9253   */\n      tag_225\n      jumpi\n        /* \"#utility.yul\":9233:9251   */\n      tag_226\n      tag_227\n      jump\t// in\n    tag_226:\n        /* \"#utility.yul\":9218:9253   */\n    tag_225:\n        /* \"#utility.yul\":9275:9276   */\n      dup3\n        /* \"#utility.yul\":9272:9273   */\n      dup3\n        /* \"#utility.yul\":9268:9277   */\n      div\n        /* \"#utility.yul\":9263:9277   */\n      swap1\n      pop\n        /* \"#utility.yul\":9098:9283   */\n      swap3\n      swap2\n      pop\n      pop\n      jump\t// out\n        /* \"#utility.yul\":9289:9385   */\n    tag_174:\n        /* \"#utility.yul\":9326:9333   */\n      0x00\n        /* \"#utility.yul\":9355:9379   */\n      tag_229\n        /* \"#utility.yul\":9373:9378   */\n      dup3\n        /* \"#utility.yul\":9355:9379   */\n      tag_230\n      jump\t// in\n    tag_229:\n        /* \"#utility.yul\":9344:9379   */\n      swap1\n      pop\n        /* \"#utility.yul\":9289:9385   */\n      swap2\n      swap1\n      pop\n      jump\t// out\n        /* \"#utility.yul\":9391:9481   */\n    tag_231:\n        /* \"#utility.yul\":9425:9432   */\n      0x00\n        /* \"#utility.yul\":9468:9473   */\n      dup2\n        /* \"#utility.yul\":9461:9474   */\n      iszero\n        /* \"#utility.yul\":9454:9475   */\n      iszero\n        /* \"#utility.yul\":9443:9475   */\n      swap1\n      pop\n        /* \"#utility.yul\":9391:9481   */\n      swap2\n      swap1\n      pop\n      jump\t// out\n        /* \"#utility.yul\":9487:9613   */\n    tag_230:\n        /* \"#utility.yul\":9524:9531   */\n      0x00\n        /* \"#utility.yul\":9564:9606   */\n      0xffffffffffffffffffffffffffffffffffffffff\n        /* \"#utility.yul\":9557:9562   */\n      dup3\n        /* \"#utility.yul\":9553:9607   */\n      and\n        /* \"#utility.yul\":9542:9607   */\n      swap1\n      pop\n        /* \"#utility.yul\":9487:9613   */\n      swap2\n      swap1\n      pop\n      jump\t// out\n        /* \"#utility.yul\":9619:9696   */\n    tag_191:\n        /* \"#utility.yul\":9656:9663   */\n      0x00\n        /* \"#utility.yul\":9685:9690   */\n      dup2\n        /* \"#utility.yul\":9674:9690   */\n      swap1\n      pop\n        /* \"#utility.yul\":9619:9696   */\n      swap2\n      swap1\n      pop\n      jump\t// out\n        /* \"#utility.yul\":9702:9983   */\n    tag_213:\n        /* \"#utility.yul\":9785:9812   */\n      tag_236\n        /* \"#utility.yul\":9807:9811   */\n      dup3\n        /* \"#utility.yul\":9785:9812   */\n      tag_237\n      jump\t// in\n    tag_236:\n        /* \"#utility.yul\":9777:9783   */\n      dup2\n        /* \"#utility.yul\":9773:9813   */\n      add\n        /* \"#utility.yul\":9915:9921   */\n      dup2\n        /* \"#utility.yul\":9903:9913   */\n      dup2\n        /* \"#utility.yul\":9900:9922   */\n      lt\n        /* \"#utility.yul\":9879:9897   */\n      0xffffffffffffffff\n        /* \"#utility.yul\":9867:9877   */\n      dup3\n        /* \"#utility.yul\":9864:9898   */\n      gt\n        /* \"#utility.yul\":9861:9923   */\n      or\n        /* \"#utility.yul\":9858:9946   */\n      iszero\n      tag_238\n      jumpi\n        /* \"#utility.yul\":9926:9944   */\n      tag_239\n      tag_31\n      jump\t// in\n    tag_239:\n        /* \"#utility.yul\":9858:9946   */\n    tag_238:\n        /* \"#utility.yul\":9966:9976   */\n      dup1\n        /* \"#utility.yul\":9962:9964   */\n      0x40\n        /* \"#utility.yul\":9955:9977   */\n      mstore\n        /* \"#utility.yul\":9745:9983   */\n      pop\n        /* \"#utility.yul\":9702:9983   */\n      pop\n      pop\n      jump\t// out\n        /* \"#utility.yul\":9989:10222   */\n    tag_62:\n        /* \"#utility.yul\":10028:10031   */\n      0x00\n        /* \"#utility.yul\":10051:10075   */\n      tag_241\n        /* \"#utility.yul\":10069:10074   */\n      dup3\n        /* \"#utility.yul\":10051:10075   */\n      tag_191\n      jump\t// in\n    tag_241:\n        /* \"#utility.yul\":10042:10075   */\n      swap2\n      pop\n        /* \"#utility.yul\":10097:10163   */\n      0xffffffffffffffffffffffffffffffffffffffffffffffffffffffffffffffff\n        /* \"#utility.yul\":10090:10095   */\n      dup3\n        /* \"#utility.yul\":10087:10164   */\n      eq\n        /* \"#utility.yul\":10084:10187   */\n      iszero\n      tag_242\n      jumpi\n        /* \"#utility.yul\":10167:10185   */\n      tag_243\n      tag_244\n      jump\t// in\n    tag_243:\n        /* \"#utility.yul\":10084:10187   */\n    tag_242:\n        /* \"#utility.yul\":10214:10215   */\n      0x01\n        /* \"#utility.yul\":10207:10212   */\n      dup3\n        /* \"#utility.yul\":10203:10216   */\n      add\n        /* \"#utility.yul\":10196:10216   */\n      swap1\n      pop\n        /* \"#utility.yul\":9989:10222   */\n      swap2\n      swap1\n      pop\n      jump\t// out\n        /* \"#utility.yul\":10228:10408   */\n    tag_244:\n        /* \"#utility.yul\":10276:10353   */\n      0x4e487b7100000000000000000000000000000000000000000000000000000000\n        /* \"#utility.yul\":10273:10274   */\n      0x00\n        /* \"#utility.yul\":10266:10354   */\n      mstore\n        /* \"#utility.yul\":10373:10377   */\n      0x11\n        /* \"#utility.yul\":10370:10371   */\n      0x04\n        /* \"#utility.yul\":10363:10378   */\n      mstore\n        /* \"#utility.yul\":10397:10401   */\n      0x24\n        /* \"#utility.yul\":10394:10395   */\n      0x00\n        /* \"#utility.yul\":10387:10402   */\n      revert\n        /* \"#utility.yul\":10414:10594   */\n    tag_227:\n        /* \"#utility.yul\":10462:10539   */\n      0x4e487b7100000000000000000000000000000000000000000000000000000000\n        /* \"#utility.yul\":10459:10460   */\n      0x00\n        /* \"#utility.yul\":10452:10540   */\n      mstore\n        /* \"#utility.yul\":10559:10563   */\n      0x12\n        /* \"#utility.yul\":10556:10557   */\n      0x04\n        /* \"#utility.yul\":10549:10564   */\n      mstore\n        /* \"#utility.yul\":10583:10587   */\n      0x24\n        /* \"#utility.yul\":10580:10581   */\n      0x00\n        /* \"#utility.yul\":10573:10588   */\n      revert\n        /* \"#utility.yul\":10600:10780   */\n    tag_41:\n        /* \"#utility.yul\":10648:10725   */\n      0x4e487b7100000000000000000000000000000000000000000000000000000000\n        /* \"#utility.yul\":10645:10646   */\n      0x00\n        /* \"#utility.yul\":10638:10726   */\n      mstore\n        /* \"#utility.yul\":10745:10749   */\n      0x32\n        /* \"#utility.yul\":10742:10743   */\n      0x04\n        /* \"#utility.yul\":10735:10750   */\n      mstore\n        /* \"#utility.yul\":10769:10773   */\n      0x24\n        /* \"#utility.yul\":10766:10767   */\n      0x00\n        /* \"#utility.yul\":10759:10774   */\n      revert\n        /* \"#utility.yul\":10786:10966   */\n    tag_31:\n        /* \"#utility.yul\":10834:10911   */\n      0x4e487b7100000000000000000000000000000000000000000000000000000000\n        /* \"#utility.yul\":10831:10832   */\n      0x00\n        /* \"#utility.yul\":10824:10912   */\n      mstore\n        /* \"#utility.yul\":10931:10935   */\n      0x41\n        /* \"#utility.yul\":10928:10929   */\n      0x04\n        /* \"#utility.yul\":10921:10936   */\n      mstore\n        /* \"#utility.yul\":10955:10959   */\n      0x24\n        /* \"#utility.yul\":10952:10953   */\n      0x00\n        /* \"#utility.yul\":10945:10960   */\n      revert\n        /* \"#utility.yul\":10972:11089   */\n    tag_122:\n        /* \"#utility.yul\":11081:11082   */\n      0x00\n        /* \"#utility.yul\":11078:11079   */\n      dup1\n        /* \"#utility.yul\":11071:11083   */\n      revert\n        /* \"#utility.yul\":11095:11212   */\n    tag_109:\n        /* \"#utility.yul\":11204:11205   */\n      0x00\n        /* \"#utility.yul\":11201:11202   */\n      dup1\n        /* \"#utility.yul\":11194:11206   */\n      revert\n        /* \"#utility.yul\":11218:11335   */\n    tag_143:\n        /* \"#utility.yul\":11327:11328   */\n      0x00\n        /* \"#utility.yul\":11324:11325   */\n      dup1\n        /* \"#utility.yul\":11317:11329   */\n      revert\n        /* \"#utility.yul\":11341:11458   */\n    tag_138:\n        /* \"#utility.yul\":11450:11451   */\n      0x00\n        /* \"#utility.yul\":11447:11448   */\n      dup1\n        /* \"#utility.yul\":11440:11452   */\n      revert\n        /* \"#utility.yul\":11464:11566   */\n    tag_237:\n        /* \"#utility.yul\":11505:11511   */\n      0x00\n        /* \"#utility.yul\":11556:11558   */\n      0x1f\n        /* \"#utility.yul\":11552:11559   */\n      not\n        /* \"#utility.yul\":11547:11549   */\n      0x1f\n        /* \"#utility.yul\":11540:11545   */\n      dup4\n        /* \"#utility.yul\":11536:11550   */\n      add\n        /* \"#utility.yul\":11532:11560   */\n      and\n        /* \"#utility.yul\":11522:11560   */\n      swap1\n      pop\n        /* \"#utility.yul\":11464:11566   */\n      swap2\n      swap1\n      pop\n      jump\t// out\n        /* \"#utility.yul\":11572:11694   */\n    tag_117:\n        /* \"#utility.yul\":11645:11669   */\n      tag_255\n        /* \"#utility.yul\":11663:11668   */\n      dup2\n        /* \"#utility.yul\":11645:11669   */\n      tag_174\n      jump\t// in\n    tag_255:\n        /* \"#utility.yul\":11638:11643   */\n      dup2\n        /* \"#utility.yul\":11635:11670   */\n      eq\n        /* \"#utility.yul\":11625:11688   */\n      tag_256\n      jumpi\n        /* \"#utility.yul\":11684:11685   */\n      0x00\n        /* \"#utility.yul\":11681:11682   */\n      dup1\n        /* \"#utility.yul\":11674:11686   */\n      revert\n        /* \"#utility.yul\":11625:11688   */\n    tag_256:\n        /* \"#utility.yul\":11572:11694   */\n      pop\n      jump\t// out\n        /* \"#utility.yul\":11700:11816   */\n    tag_127:\n        /* \"#utility.yul\":11770:11791   */\n      tag_258\n        /* \"#utility.yul\":11785:11790   */\n      dup2\n        /* \"#utility.yul\":11770:11791   */\n      tag_231\n      jump\t// in\n    tag_258:\n        /* \"#utility.yul\":11763:11768   */\n      dup2\n        /* \"#utility.yul\":11760:11792   */\n      eq\n        /* \"#utility.yul\":11750:11810   */\n      tag_259\n      jumpi\n        /* \"#utility.yul\":11806:11807   */\n      0x00\n        /* \"#utility.yul\":11803:11804   */\n      dup1\n        /* \"#utility.yul\":11796:11808   */\n      revert\n        /* \"#utility.yul\":11750:11810   */\n    tag_259:\n        /* \"#utility.yul\":11700:11816   */\n      pop\n      jump\t// out\n        /* \"#utility.yul\":11822:11944   */\n    tag_131:\n        /* \"#utility.yul\":11895:11919   */\n      tag_261\n        /* \"#utility.yul\":11913:11918   */\n      dup2\n        /* \"#utility.yul\":11895:11919   */\n      tag_191\n      jump\t// in\n    tag_261:\n        /* \"#utility.yul\":11888:11893   */\n      dup2\n        /* \"#utility.yul\":11885:11920   */\n      eq\n        /* \"#utility.yul\":11875:11938   */\n      tag_262\n      jumpi\n        /* \"#utility.yul\":11934:11935   */\n      0x00\n        /* \"#utility.yul\":11931:11932   */\n      dup1\n        /* \"#utility.yul\":11924:11936   */\n      revert\n        /* \"#utility.yul\":11875:11938   */\n    tag_262:\n        /* \"#utility.yul\":11822:11944   */\n      pop\n      jump\t// out\n\n    auxdata: 0xa2646970667358221220f5138da11efc7b738fc614d9312ec2e91dd3f998989d0d12ff3054f70f26742c64736f6c63430008070033\n}\n",
				"bytecode": {
					"linkReferences": {},
					"object": "608060405234801561001057600080fd5b50610c4e806100206000396000f3fe60806040526004361061003f5760003560e01c806315563fd9146100445780637e96819514610082578063935f95021461009e578063beeae2a6146100db575b600080fd5b34801561005057600080fd5b5061006b6004803603810190610066919061067d565b610104565b60405161007992919061093e565b60405180910390f35b61009c6004803603810190610097919061075b565b610357565b005b3480156100aa57600080fd5b506100c560048036038101906100c0919061075b565b6103ed565b6040516100d2919061091c565b60405180910390f35b3480156100e757600080fd5b5061010260048036038101906100fd91906106ec565b6104b6565b005b60608060008590506000845190508067ffffffffffffffff81111561012c5761012b610b7f565b5b60405190808252806020026020018201604052801561015a5781602001602082028036833780820191505090505b5093508067ffffffffffffffff81111561017757610176610b7f565b5b6040519080825280602002602001820160405280156101a55781602001602082028036833780820191505090505b50925060005b8181101561034c578273ffffffffffffffffffffffffffffffffffffffff166370a082318783815181106101e2576101e1610b50565b5b60200260200101516040518263ffffffff1660e01b815260040161020691906108a1565b60206040518083038186803b15801561021e57600080fd5b505afa158015610232573d6000803e3d6000fd5b505050506040513d601f19601f8201168201806040525081019061025691906107d1565b85828151811061026957610268610b50565b5b6020026020010181815250508273ffffffffffffffffffffffffffffffffffffffff1663dd62ed3e8783815181106102a4576102a3610b50565b5b6020026020010151896040518363ffffffff1660e01b81526004016102ca9291906108bc565b60206040518083038186803b1580156102e257600080fd5b505afa1580156102f6573d6000803e3d6000fd5b505050506040513d601f19601f8201168201806040525081019061031a91906107d1565b84828151811061032d5761032c610b50565b5b602002602001018181525050808061034490610aa9565b9150506101ab565b505050935093915050565b600081513461036691906109ff565b905060005b82518110156103e85782818151811061038757610386610b50565b5b602002602001015173ffffffffffffffffffffffffffffffffffffffff166108fc839081150290604051600060405180830381858888f193505050501580156103d4573d6000803e3d6000fd5b5080806103e090610aa9565b91505061036b565b505050565b60606000825190508067ffffffffffffffff81111561040f5761040e610b7f565b5b60405190808252806020026020018201604052801561043d5781602001602082028036833780820191505090505b50915060005b818110156104af5783818151811061045e5761045d610b50565b5b602002602001015173ffffffffffffffffffffffffffffffffffffffff16318382815181106104905761048f610b50565b5b60200260200101818152505080806104a790610aa9565b915050610443565b5050919050565b600083905060005b8351811015610584578173ffffffffffffffffffffffffffffffffffffffff166323b872dd338684815181106104f7576104f6610b50565b5b6020026020010151866040518463ffffffff1660e01b815260040161051e939291906108e5565b602060405180830381600087803b15801561053857600080fd5b505af115801561054c573d6000803e3d6000fd5b505050506040513d601f19601f8201168201806040525081019061057091906107a4565b50808061057c90610aa9565b9150506104be565b5050505050565b600061059e6105998461099a565b610975565b905080838252602082019050828560208602820111156105c1576105c0610bb3565b5b60005b858110156105f157816105d788826105fb565b8452602084019350602083019250506001810190506105c4565b5050509392505050565b60008135905061060a81610bd3565b92915050565b600082601f83011261062557610624610bae565b5b813561063584826020860161058b565b91505092915050565b60008151905061064d81610bea565b92915050565b60008135905061066281610c01565b92915050565b60008151905061067781610c01565b92915050565b60008060006060848603121561069657610695610bbd565b5b60006106a4868287016105fb565b93505060206106b5868287016105fb565b925050604084013567ffffffffffffffff8111156106d6576106d5610bb8565b5b6106e286828701610610565b9150509250925092565b60008060006060848603121561070557610704610bbd565b5b6000610713868287016105fb565b935050602084013567ffffffffffffffff81111561073457610733610bb8565b5b61074086828701610610565b925050604061075186828701610653565b9150509250925092565b60006020828403121561077157610770610bbd565b5b600082013567ffffffffffffffff81111561078f5761078e610bb8565b5b61079b84828501610610565b91505092915050565b6000602082840312156107ba576107b9610bbd565b5b60006107c88482850161063e565b91505092915050565b6000602082840312156107e7576107e6610bbd565b5b60006107f584828501610668565b91505092915050565b600061080a8383610883565b60208301905092915050565b61081f81610a30565b82525050565b6000610830826109d6565b61083a81856109ee565b9350610845836109c6565b8060005b8381101561087657815161085d88826107fe565b9750610868836109e1565b925050600181019050610849565b5085935050505092915050565b61088c81610a6e565b82525050565b61089b81610a6e565b82525050565b60006020820190506108b66000830184610816565b92915050565b60006040820190506108d16000830185610816565b6108de6020830184610816565b9392505050565b60006060820190506108fa6000830186610816565b6109076020830185610816565b6109146040830184610892565b949350505050565b600060208201905081810360008301526109368184610825565b905092915050565b600060408201905081810360008301526109588185610825565b9050818103602083015261096c8184610825565b90509392505050565b600061097f610990565b905061098b8282610a78565b919050565b6000604051905090565b600067ffffffffffffffff8211156109b5576109b4610b7f565b5b602082029050602081019050919050565b6000819050602082019050919050565b600081519050919050565b6000602082019050919050565b600082825260208201905092915050565b6000610a0a82610a6e565b9150610a1583610a6e565b925082610a2557610a24610b21565b5b828204905092915050565b6000610a3b82610a4e565b9050919050565b60008115159050919050565b600073ffffffffffffffffffffffffffffffffffffffff82169050919050565b6000819050919050565b610a8182610bc2565b810181811067ffffffffffffffff82111715610aa057610a9f610b7f565b5b80604052505050565b6000610ab482610a6e565b91507fffffffffffffffffffffffffffffffffffffffffffffffffffffffffffffffff821415610ae757610ae6610af2565b5b600182019050919050565b7f4e487b7100000000000000000000000000000000000000000000000000000000600052601160045260246000fd5b7f4e487b7100000000000000000000000000000000000000000000000000000000600052601260045260246000fd5b7f4e487b7100000000000000000000000000000000000000000000000000000000600052603260045260246000fd5b7f4e487b7100000000000000000000000000000000000000000000000000000000600052604160045260246000fd5b600080fd5b600080fd5b600080fd5b600080fd5b6000601f19601f8301169050919050565b610bdc81610a30565b8114610be757600080fd5b50565b610bf381610a42565b8114610bfe57600080fd5b50565b610c0a81610a6e565b8114610c1557600080fd5b5056fea2646970667358221220f5138da11efc7b738fc614d9312ec2e91dd3f998989d0d12ff3054f70f26742c64736f6c63430008070033",
					"opcodes": "PUSH1 0x80 PUSH1 0x40 MSTORE CALLVALUE DUP1 ISZERO PUSH2 0x10 JUMPI PUSH1 0x0 DUP1 REVERT JUMPDEST POP PUSH2 0xC4E DUP1 PUSH2 0x20 PUSH1 0x0 CODECOPY PUSH1 0x0 RETURN INVALID PUSH1 0x80 PUSH1 0x40 MSTORE PUSH1 0x4 CALLDATASIZE LT PUSH2 0x3F JUMPI PUSH1 0x0 CALLDATALOAD PUSH1 0xE0 SHR DUP1 PUSH4 0x15563FD9 EQ PUSH2 0x44 JUMPI DUP1 PUSH4 0x7E968195 EQ PUSH2 0x82 JUMPI DUP1 PUSH4 0x935F9502 EQ PUSH2 0x9E JUMPI DUP1 PUSH4 0xBEEAE2A6 EQ PUSH2 0xDB JUMPI JUMPDEST PUSH1 0x0 DUP1 REVERT JUMPDEST CALLVALUE DUP1 ISZERO PUSH2 0x50 JUMPI PUSH1 0x0 DUP1 REVERT JUMPDEST POP PUSH2 0x6B PUSH1 0x4 DUP1 CALLDATASIZE SUB DUP2 ADD SWAP1 PUSH2 0x66 SWAP2 SWAP1 PUSH2 0x67D JUMP JUMPDEST PUSH2 0x104 JUMP JUMPDEST PUSH1 0x40 MLOAD PUSH2 0x79 SWAP3 SWAP2 SWAP1 PUSH2 0x93E JUMP JUMPDEST PUSH1 0x40 MLOAD DUP1 SWAP2 SUB SWAP1 RETURN JUMPDEST PUSH2 0x9C PUSH1 0x4 DUP1 CALLDATASIZE SUB DUP2 ADD SWAP1 PUSH2 0x97 SWAP2 SWAP1 PUSH2 0x75B JUMP JUMPDEST PUSH2 0x357 JUMP JUMPDEST STOP JUMPDEST CALLVALUE DUP1 ISZERO PUSH2 0xAA JUMPI PUSH1 0x0 DUP1 REVERT JUMPDEST POP PUSH2 0xC5 PUSH1 0x4 DUP1 CALLDATASIZE SUB DUP2 ADD SWAP1 PUSH2 0xC0 SWAP2 SWAP1 PUSH2 0x75B JUMP JUMPDEST PUSH2 0x3ED JUMP JUMPDEST PUSH1 0x40 MLOAD PUSH2 0xD2 SWAP2 SWAP1 PUSH2 0x91C JUMP JUMPDEST PUSH1 0x40 MLOAD DUP1 SWAP2 SUB SWAP1 RETURN JUMPDEST CALLVALUE DUP1 ISZERO PUSH2 0xE7 JUMPI PUSH1 0x0 DUP1 REVERT JUMPDEST POP PUSH2 0x102 PUSH1 0x4 DUP1 CALLDATASIZE SUB DUP2 ADD SWAP1 PUSH2 0xFD SWAP2 SWAP1 PUSH2 0x6EC JUMP JUMPDEST PUSH2 0x4B6 JUMP JUMPDEST STOP JUMPDEST PUSH1 0x60 DUP1 PUSH1 0x0 DUP6 SWAP1 POP PUSH1 0x0 DUP5 MLOAD SWAP1 POP DUP1 PUSH8 0xFFFFFFFFFFFFFFFF DUP2 GT ISZERO PUSH2 0x12C JUMPI PUSH2 0x12B PUSH2 0xB7F JUMP JUMPDEST JUMPDEST PUSH1 0x40 MLOAD SWAP1 DUP1 DUP3 MSTORE DUP1 PUSH1 0x20 MUL PUSH1 0x20 ADD DUP3 ADD PUSH1 0x40 MSTORE DUP1 ISZERO PUSH2 0x15A JUMPI DUP2 PUSH1 0x20 ADD PUSH1 0x20 DUP3 MUL DUP1 CALLDATASIZE DUP4 CALLDATACOPY DUP1 DUP3 ADD SWAP2 POP POP SWAP1 POP JUMPDEST POP SWAP4 POP DUP1 PUSH8 0xFFFFFFFFFFFFFFFF DUP2 GT ISZERO PUSH2 0x177 JUMPI PUSH2 0x176 PUSH2 0xB7F JUMP JUMPDEST JUMPDEST PUSH1 0x40 MLOAD SWAP1 DUP1 DUP3 MSTORE DUP1 PUSH1 0x20 MUL PUSH1 0x20 ADD DUP3 ADD PUSH1 0x40 MSTORE DUP1 ISZERO PUSH2 0x1A5 JUMPI DUP2 PUSH1 0x20 ADD PUSH1 0x20 DUP3 MUL DUP1 CALLDATASIZE DUP4 CALLDATACOPY DUP1 DUP3 ADD SWAP2 POP POP SWAP1 POP JUMPDEST POP SWAP3 POP PUSH1 0x0 JUMPDEST DUP2 DUP2 LT ISZERO PUSH2 0x34C JUMPI DUP3 PUSH20 0xFFFFFFFFFFFFFFFFFFFFFFFFFFFFFFFFFFFFFFFF AND PUSH4 0x70A08231 DUP8 DUP4 DUP2 MLOAD DUP2 LT PUSH2 0x1E2 JUMPI PUSH2 0x1E1 PUSH2 0xB50 JUMP JUMPDEST JUMPDEST PUSH1 0x20 MUL PUSH1 0x20 ADD ADD MLOAD PUSH1 0x40 MLOAD DUP3 PUSH4 0xFFFFFFFF AND PUSH1 0xE0 SHL DUP2 MSTORE PUSH1 0x4 ADD PUSH2 0x206 SWAP2 SWAP1 PUSH2 0x8A1 JUMP JUMPDEST PUSH1 0x20 PUSH1 0x40 MLOAD DUP1 DUP4 SUB DUP2 DUP7 DUP1 EXTCODESIZE ISZERO DUP1 ISZERO PUSH2 0x21E JUMPI PUSH1 0x0 DUP1 REVERT JUMPDEST POP GAS STATICCALL ISZERO DUP1 ISZERO PUSH2 0x232 JUMPI RETURNDATASIZE PUSH1 0x0 DUP1 RETURNDATACOPY RETURNDATASIZE PUSH1 0x0 REVERT JUMPDEST POP POP POP POP PUSH1 0x40 MLOAD RETURNDATASIZE PUSH1 0x1F NOT PUSH1 0x1F DUP3 ADD AND DUP3 ADD DUP1 PUSH1 0x40 MSTORE POP DUP2 ADD SWAP1 PUSH2 0x256 SWAP2 SWAP1 PUSH2 0x7D1 JUMP JUMPDEST DUP6 DUP3 DUP2 MLOAD DUP2 LT PUSH2 0x269 JUMPI PUSH2 0x268 PUSH2 0xB50 JUMP JUMPDEST JUMPDEST PUSH1 0x20 MUL PUSH1 0x20 ADD ADD DUP2 DUP2 MSTORE POP POP DUP3 PUSH20 0xFFFFFFFFFFFFFFFFFFFFFFFFFFFFFFFFFFFFFFFF AND PUSH4 0xDD62ED3E DUP8 DUP4 DUP2 MLOAD DUP2 LT PUSH2 0x2A4 JUMPI PUSH2 0x2A3 PUSH2 0xB50 JUMP JUMPDEST JUMPDEST PUSH1 0x20 MUL PUSH1 0x20 ADD ADD MLOAD DUP10 PUSH1 0x40 MLOAD DUP4 PUSH4 0xFFFFFFFF AND PUSH1 0xE0 SHL DUP2 MSTORE PUSH1 0x4 ADD PUSH2 0x2CA SWAP3 SWAP2 SWAP1 PUSH2 0x8BC JUMP JUMPDEST PUSH1 0x20 PUSH1 0x40 MLOAD DUP1 DUP4 SUB DUP2 DUP7 DUP1 EXTCODESIZE ISZERO DUP1 ISZERO PUSH2 0x2E2 JUMPI PUSH1 0x0 DUP1 REVERT JUMPDEST POP GAS STATICCALL ISZERO DUP1 ISZERO PUSH2 0x2F6 JUMPI RETURNDATASIZE PUSH1 0x0 DUP1 RETURNDATACOPY RETURNDATASIZE PUSH1 0x0 REVERT JUMPDEST POP POP POP POP PUSH1 0x40 MLOAD RETURNDATASIZE PUSH1 0x1F NOT PUSH1 0x1F DUP3 ADD AND DUP3 ADD DUP1 PUSH1 0x40 MSTORE POP DUP2 ADD SWAP1 PUSH2 0x31A SWAP2 SWAP1 PUSH2 0x7D1 JUMP JUMPDEST DUP5 DUP3 DUP2 MLOAD DUP2 LT PUSH2 0x32D JUMPI PUSH2 0x32C PUSH2 0xB50 JUMP JUMPDEST JUMPDEST PUSH1 0x20 MUL PUSH1 0x20 ADD ADD DUP2 DUP2 MSTORE POP POP DUP1 DUP1 PUSH2 0x344 SWAP1 PUSH2 0xAA9 JUMP JUMPDEST SWAP2 POP POP PUSH2 0x1AB JUMP JUMPDEST POP POP POP SWAP4 POP SWAP4 SWAP2 POP POP JUMP JUMPDEST PUSH1 0x0 DUP2 MLOAD CALLVALUE PUSH2 0x366 SWAP2 SWAP1 PUSH2 0x9FF JUMP JUMPDEST SWAP1 POP PUSH1 0x0 JUMPDEST DUP3 MLOAD DUP2 LT ISZERO PUSH2 0x3E8 JUMPI DUP3 DUP2 DUP2 MLOAD DUP2 LT PUSH2 0x387 JUMPI PUSH2 0x386 PUSH2 0xB50 JUMP JUMPDEST JUMPDEST PUSH1 0x20 MUL PUSH1 0x20 ADD ADD MLOAD PUSH20 0xFFFFFFFFFFFFFFFFFFFFFFFFFFFFFFFFFFFFFFFF AND PUSH2 0x8FC DUP4 SWAP1 DUP2 ISZERO MUL SWAP1 PUSH1 0x40 MLOAD PUSH1 0x0 PUSH1 0x40 MLOAD DUP1 DUP4 SUB DUP2 DUP6 DUP9 DUP9 CALL SWAP4 POP POP POP POP ISZERO DUP1 ISZERO PUSH2 0x3D4 JUMPI RETURNDATASIZE PUSH1 0x0 DUP1 RETURNDATACOPY RETURNDATASIZE PUSH1 0x0 REVERT JUMPDEST POP DUP1 DUP1 PUSH2 0x3E0 SWAP1 PUSH2 0xAA9 JUMP JUMPDEST SWAP2 POP POP PUSH2 0x36B JUMP JUMPDEST POP POP POP JUMP JUMPDEST PUSH1 0x60 PUSH1 0x0 DUP3 MLOAD SWAP1 POP DUP1 PUSH8 0xFFFFFFFFFFFFFFFF DUP2 GT ISZERO PUSH2 0x40F JUMPI PUSH2 0x40E PUSH2 0xB7F JUMP JUMPDEST JUMPDEST PUSH1 0x40 MLOAD SWAP1 DUP1 DUP3 MSTORE DUP1 PUSH1 0x20 MUL PUSH1 0x20 ADD DUP3 ADD PUSH1 0x40 MSTORE DUP1 ISZERO PUSH2 0x43D JUMPI DUP2 PUSH1 0x20 ADD PUSH1 0x20 DUP3 MUL DUP1 CALLDATASIZE DUP4 CALLDATACOPY DUP1 DUP3 ADD SWAP2 POP POP SWAP1 POP JUMPDEST POP SWAP2 POP PUSH1 0x0 JUMPDEST DUP2 DUP2 LT ISZERO PUSH2 0x4AF JUMPI DUP4 DUP2 DUP2 MLOAD DUP2 LT PUSH2 0x45E JUMPI PUSH2 0x45D PUSH2 0xB50 JUMP JUMPDEST JUMPDEST PUSH1 0x20 MUL PUSH1 0x20 ADD ADD MLOAD PUSH20 0xFFFFFFFFFFFFFFFFFFFFFFFFFFFFFFFFFFFFFFFF AND BALANCE DUP4 DUP3 DUP2 MLOAD DUP2 LT PUSH2 0x490 JUMPI PUSH2 0x48F PUSH2 0xB50 JUMP JUMPDEST JUMPDEST PUSH1 0x20 MUL PUSH1 0x20 ADD ADD DUP2 DUP2 MSTORE POP POP DUP1 DUP1 PUSH2 0x4A7 SWAP1 PUSH2 0xAA9 JUMP JUMPDEST SWAP2 POP POP PUSH2 0x443 JUMP JUMPDEST POP POP SWAP2 SWAP1 POP JUMP JUMPDEST PUSH1 0x0 DUP4 SWAP1 POP PUSH1 0x0 JUMPDEST DUP4 MLOAD DUP2 LT ISZERO PUSH2 0x584 JUMPI DUP2 PUSH20 0xFFFFFFFFFFFFFFFFFFFFFFFFFFFFFFFFFFFFFFFF AND PUSH4 0x23B872DD CALLER DUP7 DUP5 DUP2 MLOAD DUP2 LT PUSH2 0x4F7 JUMPI PUSH2 0x4F6 PUSH2 0xB50 JUMP JUMPDEST JUMPDEST PUSH1 0x20 MUL PUSH1 0x20 ADD ADD MLOAD DUP7 PUSH1 0x40 MLOAD DUP5 PUSH4 0xFFFFFFFF AND PUSH1 0xE0 SHL DUP2 MSTORE PUSH1 0x4 ADD PUSH2 0x51E SWAP4 SWAP3 SWAP2 SWAP1 PUSH2 0x8E5 JUMP JUMPDEST PUSH1 0x20 PUSH1 0x40 MLOAD DUP1 DUP4 SUB DUP2 PUSH1 0x0 DUP8 DUP1 EXTCODESIZE ISZERO DUP1 ISZERO PUSH2 0x538 JUMPI PUSH1 0x0 DUP1 REVERT JUMPDEST POP GAS CALL ISZERO DUP1 ISZERO PUSH2 0x54C JUMPI RETURNDATASIZE PUSH1 0x0 DUP1 RETURNDATACOPY RETURNDATASIZE PUSH1 0x0 REVERT JUMPDEST POP POP POP POP PUSH1 0x40 MLOAD RETURNDATASIZE PUSH1 0x1F NOT PUSH1 0x1F DUP3 ADD AND DUP3 ADD DUP1 PUSH1 0x40 MSTORE POP DUP2 ADD SWAP1 PUSH2 0x570 SWAP2 SWAP1 PUSH2 0x7A4 JUMP JUMPDEST POP DUP1 DUP1 PUSH2 0x57C SWAP1 PUSH2 0xAA9 JUMP JUMPDEST SWAP2 POP POP PUSH2 0x4BE JUMP JUMPDEST POP POP POP POP POP JUMP JUMPDEST PUSH1 0x0 PUSH2 0x59E PUSH2 0x599 DUP5 PUSH2 0x99A JUMP JUMPDEST PUSH2 0x975 JUMP JUMPDEST SWAP1 POP DUP1 DUP4 DUP3 MSTORE PUSH1 0x20 DUP3 ADD SWAP1 POP DUP3 DUP6 PUSH1 0x20 DUP7 MUL DUP3 ADD GT ISZERO PUSH2 0x5C1 JUMPI PUSH2 0x5C0 PUSH2 0xBB3 JUMP JUMPDEST JUMPDEST PUSH1 0x0 JUMPDEST DUP6 DUP2 LT ISZERO PUSH2 0x5F1 JUMPI DUP2 PUSH2 0x5D7 DUP9 DUP3 PUSH2 0x5FB JUMP JUMPDEST DUP5 MSTORE PUSH1 0x20 DUP5 ADD SWAP4 POP PUSH1 0x20 DUP4 ADD SWAP3 POP POP PUSH1 0x1 DUP2 ADD SWAP1 POP PUSH2 0x5C4 JUMP JUMPDEST POP POP POP SWAP4 SWAP3 POP POP POP JUMP JUMPDEST PUSH1 0x0 DUP2 CALLDATALOAD SWAP1 POP PUSH2 0x60A DUP2 PUSH2 0xBD3 JUMP JUMPDEST SWAP3 SWAP2 POP POP JUMP JUMPDEST PUSH1 0x0 DUP3 PUSH1 0x1F DUP4 ADD SLT PUSH2 0x625 JUMPI PUSH2 0x624 PUSH2 0xBAE JUMP JUMPDEST JUMPDEST DUP2 CALLDATALOAD PUSH2 0x635 DUP5 DUP3 PUSH1 0x20 DUP7 ADD PUSH2 0x58B JUMP JUMPDEST SWAP2 POP POP SWAP3 SWAP2 POP POP JUMP JUMPDEST PUSH1 0x0 DUP2 MLOAD SWAP1 POP PUSH2 0x64D DUP2 PUSH2 0xBEA JUMP JUMPDEST SWAP3 SWAP2 POP POP JUMP JUMPDEST PUSH1 0x0 DUP2 CALLDATALOAD SWAP1 POP PUSH2 0x662 DUP2 PUSH2 0xC01 JUMP JUMPDEST SWAP3 SWAP2 POP POP JUMP JUMPDEST PUSH1 0x0 DUP2 MLOAD SWAP1 POP PUSH2 0x677 DUP2 PUSH2 0xC01 JUMP JUMPDEST SWAP3 SWAP2 POP POP JUMP JUMPDEST PUSH1 0x0 DUP1 PUSH1 0x0 PUSH1 0x60 DUP5 DUP7 SUB SLT ISZERO PUSH2 0x696 JUMPI PUSH2 0x695 PUSH2 0xBBD JUMP JUMPDEST JUMPDEST PUSH1 0x0 PUSH2 0x6A4 DUP7 DUP3 DUP8 ADD PUSH2 0x5FB JUMP JUMPDEST SWAP4 POP POP PUSH1 0x20 PUSH2 0x6B5 DUP7 DUP3 DUP8 ADD PUSH2 0x5FB JUMP JUMPDEST SWAP3 POP POP PUSH1 0x40 DUP5 ADD CALLDATALOAD PUSH8 0xFFFFFFFFFFFFFFFF DUP2 GT ISZERO PUSH2 0x6D6 JUMPI PUSH2 0x6D5 PUSH2 0xBB8 JUMP JUMPDEST JUMPDEST PUSH2 0x6E2 DUP7 DUP3 DUP8 ADD PUSH2 0x610 JUMP JUMPDEST SWAP2 POP POP SWAP3 POP SWAP3 POP SWAP3 JUMP JUMPDEST PUSH1 0x0 DUP1 PUSH1 0x0 PUSH1 0x60 DUP5 DUP7 SUB SLT ISZERO PUSH2 0x705 JUMPI PUSH2 0x704 PUSH2 0xBBD JUMP JUMPDEST JUMPDEST PUSH1 0x0 PUSH2 0x713 DUP7 DUP3 DUP8 ADD PUSH2 0x5FB JUMP JUMPDEST SWAP4 POP POP PUSH1 0x20 DUP5 ADD CALLDATALOAD PUSH8 0xFFFFFFFFFFFFFFFF DUP2 GT ISZERO PUSH2 0x734 JUMPI PUSH2 0x733 PUSH2 0xBB8 JUMP JUMPDEST JUMPDEST PUSH2 0x740 DUP7 DUP3 DUP8 ADD PUSH2 0x610 JUMP JUMPDEST SWAP3 POP POP PUSH1 0x40 PUSH2 0x751 DUP7 DUP3 DUP8 ADD PUSH2 0x653 JUMP JUMPDEST SWAP2 POP POP SWAP3 POP SWAP3 POP SWAP3 JUMP JUMPDEST PUSH1 0x0 PUSH1 0x20 DUP3 DUP5 SUB SLT ISZERO PUSH2 0x771 JUMPI PUSH2 0x770 PUSH2 0xBBD JUMP JUMPDEST JUMPDEST PUSH1 0x0 DUP3 ADD CALLDATALOAD PUSH8 0xFFFFFFFFFFFFFFFF DUP2 GT ISZERO PUSH2 0x78F JUMPI PUSH2 0x78E PUSH2 0xBB8 JUMP JUMPDEST JUMPDEST PUSH2 0x79B DUP5 DUP3 DUP6 ADD PUSH2 0x610 JUMP JUMPDEST SWAP2 POP POP SWAP3 SWAP2 POP POP JUMP JUMPDEST PUSH1 0x0 PUSH1 0x20 DUP3 DUP5 SUB SLT ISZERO PUSH2 0x7BA JUMPI PUSH2 0x7B9 PUSH2 0xBBD JUMP JUMPDEST JUMPDEST PUSH1 0x0 PUSH2 0x7C8 DUP5 DUP3 DUP6 ADD PUSH2 0x63E JUMP JUMPDEST SWAP2 POP POP SWAP3 SWAP2 POP POP JUMP JUMPDEST PUSH1 0x0 PUSH1 0x20 DUP3 DUP5 SUB SLT ISZERO PUSH2 0x7E7 JUMPI PUSH2 0x7E6 PUSH2 0xBBD JUMP JUMPDEST JUMPDEST PUSH1 0x0 PUSH2 0x7F5 DUP5 DUP3 DUP6 ADD PUSH2 0x668 JUMP JUMPDEST SWAP2 POP POP SWAP3 SWAP2 POP POP JUMP JUMPDEST PUSH1 0x0 PUSH2 0x80A DUP4 DUP4 PUSH2 0x883 JUMP JUMPDEST PUSH1 0x20 DUP4 ADD SWAP1 POP SWAP3 SWAP2 POP POP JUMP JUMPDEST PUSH2 0x81F DUP2 PUSH2 0xA30 JUMP JUMPDEST DUP3 MSTORE POP POP JUMP JUMPDEST PUSH1 0x0 PUSH2 0x830 DUP3 PUSH2 0x9D6 JUMP JUMPDEST PUSH2 0x83A DUP2 DUP6 PUSH2 0x9EE JUMP JUMPDEST SWAP4 POP PUSH2 0x845 DUP4 PUSH2 0x9C6 JUMP JUMPDEST DUP1 PUSH1 0x0 JUMPDEST DUP4 DUP2 LT ISZERO PUSH2 0x876 JUMPI DUP2 MLOAD PUSH2 0x85D DUP9 DUP3 PUSH2 0x7FE JUMP JUMPDEST SWAP8 POP PUSH2 0x868 DUP4 PUSH2 0x9E1 JUMP JUMPDEST SWAP3 POP POP PUSH1 0x1 DUP2 ADD SWAP1 POP PUSH2 0x849 JUMP JUMPDEST POP DUP6 SWAP4 POP POP POP POP SWAP3 SWAP2 POP POP JUMP JUMPDEST PUSH2 0x88C DUP2 PUSH2 0xA6E JUMP JUMPDEST DUP3 MSTORE POP POP JUMP JUMPDEST PUSH2 0x89B DUP2 PUSH2 0xA6E JUMP JUMPDEST DUP3 MSTORE POP POP JUMP JUMPDEST PUSH1 0x0 PUSH1 0x20 DUP3 ADD SWAP1 POP PUSH2 0x8B6 PUSH1 0x0 DUP4 ADD DUP5 PUSH2 0x816 JUMP JUMPDEST SWAP3 SWAP2 POP POP JUMP JUMPDEST PUSH1 0x0 PUSH1 0x40 DUP3 ADD SWAP1 POP PUSH2 0x8D1 PUSH1 0x0 DUP4 ADD DUP6 PUSH2 0x816 JUMP JUMPDEST PUSH2 0x8DE PUSH1 0x20 DUP4 ADD DUP5 PUSH2 0x816 JUMP JUMPDEST SWAP4 SWAP3 POP POP POP JUMP JUMPDEST PUSH1 0x0 PUSH1 0x60 DUP3 ADD SWAP1 POP PUSH2 0x8FA PUSH1 0x0 DUP4 ADD DUP7 PUSH2 0x816 JUMP JUMPDEST PUSH2 0x907 PUSH1 0x20 DUP4 ADD DUP6 PUSH2 0x816 JUMP JUMPDEST PUSH2 0x914 PUSH1 0x40 DUP4 ADD DUP5 PUSH2 0x892 JUMP JUMPDEST SWAP5 SWAP4 POP POP POP POP JUMP JUMPDEST PUSH1 0x0 PUSH1 0x20 DUP3 ADD SWAP1 POP DUP2 DUP2 SUB PUSH1 0x0 DUP4 ADD MSTORE PUSH2 0x936 DUP2 DUP5 PUSH2 0x825 JUMP JUMPDEST SWAP1 POP SWAP3 SWAP2 POP POP JUMP JUMPDEST PUSH1 0x0 PUSH1 0x40 DUP3 ADD SWAP1 POP DUP2 DUP2 SUB PUSH1 0x0 DUP4 ADD MSTORE PUSH2 0x958 DUP2 DUP6 PUSH2 0x825 JUMP JUMPDEST SWAP1 POP DUP2 DUP2 SUB PUSH1 0x20 DUP4 ADD MSTORE PUSH2 0x96C DUP2 DUP5 PUSH2 0x825 JUMP JUMPDEST SWAP1 POP SWAP4 SWAP3 POP POP POP JUMP JUMPDEST PUSH1 0x0 PUSH2 0x97F PUSH2 0x990 JUMP JUMPDEST SWAP1 POP PUSH2 0x98B DUP3 DUP3 PUSH2 0xA78 JUMP JUMPDEST SWAP2 SWAP1 POP JUMP JUMPDEST PUSH1 0x0 PUSH1 0x40 MLOAD SWAP1 POP SWAP1 JUMP JUMPDEST PUSH1 0x0 PUSH8 0xFFFFFFFFFFFFFFFF DUP3 GT ISZERO PUSH2 0x9B5 JUMPI PUSH2 0x9B4 PUSH2 0xB7F JUMP JUMPDEST JUMPDEST PUSH1 0x20 DUP3 MUL SWAP1 POP PUSH1 0x20 DUP2 ADD SWAP1 POP SWAP2 SWAP1 POP JUMP JUMPDEST PUSH1 0x0 DUP2 SWAP1 POP PUSH1 0x20 DUP3 ADD SWAP1 POP SWAP2 SWAP1 POP JUMP JUMPDEST PUSH1 0x0 DUP2 MLOAD SWAP1 POP SWAP2 SWAP1 POP JUMP JUMPDEST PUSH1 0x0 PUSH1 0x20 DUP3 ADD SWAP1 POP SWAP2 SWAP1 POP JUMP JUMPDEST PUSH1 0x0 DUP3 DUP3 MSTORE PUSH1 0x20 DUP3 ADD SWAP1 POP SWAP3 SWAP2 POP POP JUMP JUMPDEST PUSH1 0x0 PUSH2 0xA0A DUP3 PUSH2 0xA6E JUMP JUMPDEST SWAP2 POP PUSH2 0xA15 DUP4 PUSH2 0xA6E JUMP JUMPDEST SWAP3 POP DUP3 PUSH2 0xA25 JUMPI PUSH2 0xA24 PUSH2 0xB21 JUMP JUMPDEST JUMPDEST DUP3 DUP3 DIV SWAP1 POP SWAP3 SWAP2 POP POP JUMP JUMPDEST PUSH1 0x0 PUSH2 0xA3B DUP3 PUSH2 0xA4E JUMP JUMPDEST SWAP1 POP SWAP2 SWAP1 POP JUMP JUMPDEST PUSH1 0x0 DUP2 ISZERO ISZERO SWAP1 POP SWAP2 SWAP1 POP JUMP JUMPDEST PUSH1 0x0 PUSH20 0xFFFFFFFFFFFFFFFFFFFFFFFFFFFFFFFFFFFFFFFF DUP3 AND SWAP1 POP SWAP2 SWAP1 POP JUMP JUMPDEST PUSH1 0x0 DUP2 SWAP1 POP SWAP2 SWAP1 POP JUMP JUMPDEST PUSH2 0xA81 DUP3 PUSH2 0xBC2 JUMP JUMPDEST DUP2 ADD DUP2 DUP2 LT PUSH8 0xFFFFFFFFFFFFFFFF DUP3 GT OR ISZERO PUSH2 0xAA0 JUMPI PUSH2 0xA9F PUSH2 0xB7F JUMP JUMPDEST JUMPDEST DUP1 PUSH1 0x40 MSTORE POP POP POP JUMP JUMPDEST PUSH1 0x0 PUSH2 0xAB4 DUP3 PUSH2 0xA6E JUMP JUMPDEST SWAP2 POP PUSH32 0xFFFFFFFFFFFFFFFFFFFFFFFFFFFFFFFFFFFFFFFFFFFFFFFFFFFFFFFFFFFFFFFF DUP3 EQ ISZERO PUSH2 0xAE7 JUMPI PUSH2 0xAE6 PUSH2 0xAF2 JUMP JUMPDEST JUMPDEST PUSH1 0x1 DUP3 ADD SWAP1 POP SWAP2 SWAP1 POP JUMP JUMPDEST PUSH32 0x4E487B7100000000000000000000000000000000000000000000000000000000 PUSH1 0x0 MSTORE PUSH1 0x11 PUSH1 0x4 MSTORE PUSH1 0x24 PUSH1 0x0 REVERT JUMPDEST PUSH32 0x4E487B7100000000000000000000000000000000000000000000000000000000 PUSH1 0x0 MSTORE PUSH1 0x12 PUSH1 0x4 MSTORE PUSH1 0x24 PUSH1 0x0 REVERT JUMPDEST PUSH32 0x4E487B7100000000000000000000000000000000000000000000000000000000 PUSH1 0x0 MSTORE PUSH1 0x32 PUSH1 0x4 MSTORE PUSH1 0x24 PUSH1 0x0 REVERT JUMPDEST PUSH32 0x4E487B7100000000000000000000000000000000000000000000000000000000 PUSH1 0x0 MSTORE PUSH1 0x41 PUSH1 0x4 MSTORE PUSH1 0x24 PUSH1 0x0 REVERT JUMPDEST PUSH1 0x0 DUP1 REVERT JUMPDEST PUSH1 0x0 DUP1 REVERT JUMPDEST PUSH1 0x0 DUP1 REVERT JUMPDEST PUSH1 0x0 DUP1 REVERT JUMPDEST PUSH1 0x0 PUSH1 0x1F NOT PUSH1 0x1F DUP4 ADD AND SWAP1 POP SWAP2 SWAP1 POP JUMP JUMPDEST PUSH2 0xBDC DUP2 PUSH2 0xA30 JUMP JUMPDEST DUP2 EQ PUSH2 0xBE7 JUMPI PUSH1 0x0 DUP1 REVERT JUMPDEST POP JUMP JUMPDEST PUSH2 0xBF3 DUP2 PUSH2 0xA42 JUMP JUMPDEST DUP2 EQ PUSH2 0xBFE JUMPI PUSH1 0x0 DUP1 REVERT JUMPDEST POP JUMP JUMPDEST PUSH2 0xC0A DUP2 PUSH2 0xA6E JUMP JUMPDEST DUP2 EQ PUSH2 0xC15 JUMPI PUSH1 0x0 DUP1 REVERT JUMPDEST POP JUMP INVALID LOG2 PUSH5 0x6970667358 0x22 SLT KECCAK256 CREATE2 SGT DUP14 LOG1 0x1E 0xFC PUSH28 0x738FC614D9312EC2E91DD3F998989D0D12FF3054F70F26742C64736F PUSH13 0x63430008070033000000000000 "
				},
				"gasEstimates": {
					"creation": {
						"codeDepositCost": "630000",
						"executionCost": "664",
						"totalCost": "630664"
					},
					"external": {
						"batchGetETHValue(address[])": "infinite",
						"batchGetValue(address,address,address[])": "infinite",
						"batchTransferERC20(address,address[],uint256)": "infinite",
						"batchTransferETH(address[])": "infinite"
					}
				},
				"methodIdentifiers": {
					"batchGetETHValue(address[])": "935f9502",
					"batchGetValue(address,address,address[])": "15563fd9",
					"batchTransferERC20(address,address[],uint256)": "beeae2a6",
					"batchTransferETH(address[])": "7e968195"
				}
			},
			"storageLayout": {
				"storage": [],
				"types": null
			},
			"userdoc": {
				"kind": "user",
				"methods": {},
				"version": 1
			}
		}
	}
}