{
	"ValueRobot.sol": {
		"ValueRobot": {
			"abi": [
				{
					"inputs": [],
					"stateMutability": "nonpayable",
					"type": "constructor"
				},
				{
					"inputs": [
						{
							"internalType": "address",
							"name": "account",
							"type": "address"
						}
					],
					"name": "getUserInfo",
					"outputs": [
						{
							"internalType": "bool",
							"name": "_userPermissions",
							"type": "bool"
						}
					],
					"stateMutability": "view",
					"type": "function"
				},
				{
					"inputs": [
						{
							"internalType": "address",
							"name": "_address",
							"type": "address"
						},
						{
							"internalType": "bool",
							"name": "_userPermissions",
							"type": "bool"
						},
						{
							"internalType": "bool",
							"name": "_owner",
							"type": "bool"
						}
					],
					"name": "setUserInfo",
					"outputs": [],
					"stateMutability": "nonpayable",
					"type": "function"
				}
			],
			"devdoc": {
				"kind": "dev",
				"methods": {},
				"version": 1
			},
			"evm": {
				"assembly": "    /* \"ValueRobot.sol\":70:791  contract ValueRobot {... */\n  mstore(0x40, 0x80)\n    /* \"ValueRobot.sol\":173:237  constructor() {... */\n  callvalue\n  dup1\n  iszero\n  tag_1\n  jumpi\n  0x00\n  dup1\n  revert\ntag_1:\n  pop\n    /* \"ValueRobot.sol\":226:230  true */\n  0x01\n    /* \"ValueRobot.sol\":197:205  userInfo */\n  0x00\n    /* \"ValueRobot.sol\":197:217  userInfo[msg.sender] */\n  dup1\n    /* \"ValueRobot.sol\":206:216  msg.sender */\n  caller\n    /* \"ValueRobot.sol\":197:217  userInfo[msg.sender] */\n  0xffffffffffffffffffffffffffffffffffffffff\n  and\n  0xffffffffffffffffffffffffffffffffffffffff\n  and\n  dup2\n  mstore\n  0x20\n  add\n  swap1\n  dup2\n  mstore\n  0x20\n  add\n  0x00\n  keccak256\n    /* \"ValueRobot.sol\":197:223  userInfo[msg.sender].owner */\n  0x00\n  add\n  0x01\n    /* \"ValueRobot.sol\":197:230  userInfo[msg.sender].owner = true */\n  0x0100\n  exp\n  dup2\n  sload\n  dup2\n  0xff\n  mul\n  not\n  and\n  swap1\n  dup4\n  iszero\n  iszero\n  mul\n  or\n  swap1\n  sstore\n  pop\n    /* \"ValueRobot.sol\":70:791  contract ValueRobot {... */\n  dataSize(sub_0)\n  dup1\n  dataOffset(sub_0)\n  0x00\n  codecopy\n  0x00\n  return\nstop\n\nsub_0: assembly {\n        /* \"ValueRobot.sol\":70:791  contract ValueRobot {... */\n      mstore(0x40, 0x80)\n      callvalue\n      dup1\n      iszero\n      tag_1\n      jumpi\n      0x00\n      dup1\n      revert\n    tag_1:\n      pop\n      jumpi(tag_2, lt(calldatasize, 0x04))\n      shr(0xe0, calldataload(0x00))\n      dup1\n      0x6386c1c7\n      eq\n      tag_3\n      jumpi\n      dup1\n      0xb61fee3f\n      eq\n      tag_4\n      jumpi\n    tag_2:\n      0x00\n      dup1\n      revert\n        /* \"ValueRobot.sol\":394:543  function getUserInfo(address account) public view returns(bool _userPermissions){... */\n    tag_3:\n      tag_5\n      0x04\n      dup1\n      calldatasize\n      sub\n      dup2\n      add\n      swap1\n      tag_6\n      swap2\n      swap1\n      tag_7\n      jump\t// in\n    tag_6:\n      tag_8\n      jump\t// in\n    tag_5:\n      mload(0x40)\n      tag_9\n      swap2\n      swap1\n      tag_10\n      jump\t// in\n    tag_9:\n      mload(0x40)\n      dup1\n      swap2\n      sub\n      swap1\n      return\n        /* \"ValueRobot.sol\":549:783  function setUserInfo(address _address,bool _userPermissions,bool _owner) public {... */\n    tag_4:\n      tag_11\n      0x04\n      dup1\n      calldatasize\n      sub\n      dup2\n      add\n      swap1\n      tag_12\n      swap2\n      swap1\n      tag_13\n      jump\t// in\n    tag_12:\n      tag_14\n      jump\t// in\n    tag_11:\n      stop\n        /* \"ValueRobot.sol\":394:543  function getUserInfo(address account) public view returns(bool _userPermissions){... */\n    tag_8:\n        /* \"ValueRobot.sol\":452:473  bool _userPermissions */\n      0x00\n        /* \"ValueRobot.sol\":503:511  userInfo */\n      dup1\n        /* \"ValueRobot.sol\":503:520  userInfo[account] */\n      0x00\n        /* \"ValueRobot.sol\":512:519  account */\n      dup4\n        /* \"ValueRobot.sol\":503:520  userInfo[account] */\n      0xffffffffffffffffffffffffffffffffffffffff\n      and\n      0xffffffffffffffffffffffffffffffffffffffff\n      and\n      dup2\n      mstore\n      0x20\n      add\n      swap1\n      dup2\n      mstore\n      0x20\n      add\n      0x00\n      keccak256\n        /* \"ValueRobot.sol\":503:536  userInfo[account].userPermissions */\n      0x00\n      add\n      0x00\n      swap1\n      sload\n      swap1\n      0x0100\n      exp\n      swap1\n      div\n      0xff\n      and\n        /* \"ValueRobot.sol\":484:536  _userPermissions = userInfo[account].userPermissions */\n      swap1\n      pop\n        /* \"ValueRobot.sol\":394:543  function getUserInfo(address account) public view returns(bool _userPermissions){... */\n      swap2\n      swap1\n      pop\n      jump\t// out\n        /* \"ValueRobot.sol\":549:783  function setUserInfo(address _address,bool _userPermissions,bool _owner) public {... */\n    tag_14:\n        /* \"ValueRobot.sol\":639:665  UserInfo storage _userInfo */\n      0x00\n        /* \"ValueRobot.sol\":668:676  userInfo */\n      dup1\n        /* \"ValueRobot.sol\":668:686  userInfo[_address] */\n      0x00\n        /* \"ValueRobot.sol\":677:685  _address */\n      dup6\n        /* \"ValueRobot.sol\":668:686  userInfo[_address] */\n      0xffffffffffffffffffffffffffffffffffffffff\n      and\n      0xffffffffffffffffffffffffffffffffffffffff\n      and\n      dup2\n      mstore\n      0x20\n      add\n      swap1\n      dup2\n      mstore\n      0x20\n      add\n      0x00\n      keccak256\n        /* \"ValueRobot.sol\":639:686  UserInfo storage _userInfo = userInfo[_address] */\n      swap1\n      pop\n        /* \"ValueRobot.sol\":725:741  _userPermissions */\n      dup3\n        /* \"ValueRobot.sol\":697:706  _userInfo */\n      dup2\n        /* \"ValueRobot.sol\":697:722  _userInfo.userPermissions */\n      0x00\n      add\n      0x00\n        /* \"ValueRobot.sol\":697:741  _userInfo.userPermissions = _userPermissions */\n      0x0100\n      exp\n      dup2\n      sload\n      dup2\n      0xff\n      mul\n      not\n      and\n      swap1\n      dup4\n      iszero\n      iszero\n      mul\n      or\n      swap1\n      sstore\n      pop\n        /* \"ValueRobot.sol\":770:776  _owner */\n      dup2\n        /* \"ValueRobot.sol\":752:761  _userInfo */\n      dup2\n        /* \"ValueRobot.sol\":752:767  _userInfo.owner */\n      0x00\n      add\n      0x01\n        /* \"ValueRobot.sol\":752:776  _userInfo.owner = _owner */\n      0x0100\n      exp\n      dup2\n      sload\n      dup2\n      0xff\n      mul\n      not\n      and\n      swap1\n      dup4\n      iszero\n      iszero\n      mul\n      or\n      swap1\n      sstore\n      pop\n        /* \"ValueRobot.sol\":629:783  {... */\n      pop\n        /* \"ValueRobot.sol\":549:783  function setUserInfo(address _address,bool _userPermissions,bool _owner) public {... */\n      pop\n      pop\n      pop\n      jump\t// out\n        /* \"#utility.yul\":7:146   */\n    tag_18:\n        /* \"#utility.yul\":53:58   */\n      0x00\n        /* \"#utility.yul\":91:97   */\n      dup2\n        /* \"#utility.yul\":78:98   */\n      calldataload\n        /* \"#utility.yul\":69:98   */\n      swap1\n      pop\n        /* \"#utility.yul\":107:140   */\n      tag_20\n        /* \"#utility.yul\":134:139   */\n      dup2\n        /* \"#utility.yul\":107:140   */\n      tag_21\n      jump\t// in\n    tag_20:\n        /* \"#utility.yul\":7:146   */\n      swap3\n      swap2\n      pop\n      pop\n      jump\t// out\n        /* \"#utility.yul\":152:285   */\n    tag_22:\n        /* \"#utility.yul\":195:200   */\n      0x00\n        /* \"#utility.yul\":233:239   */\n      dup2\n        /* \"#utility.yul\":220:240   */\n      calldataload\n        /* \"#utility.yul\":211:240   */\n      swap1\n      pop\n        /* \"#utility.yul\":249:279   */\n      tag_24\n        /* \"#utility.yul\":273:278   */\n      dup2\n        /* \"#utility.yul\":249:279   */\n      tag_25\n      jump\t// in\n    tag_24:\n        /* \"#utility.yul\":152:285   */\n      swap3\n      swap2\n      pop\n      pop\n      jump\t// out\n        /* \"#utility.yul\":291:620   */\n    tag_7:\n        /* \"#utility.yul\":350:356   */\n      0x00\n        /* \"#utility.yul\":399:401   */\n      0x20\n        /* \"#utility.yul\":387:396   */\n      dup3\n        /* \"#utility.yul\":378:385   */\n      dup5\n        /* \"#utility.yul\":374:397   */\n      sub\n        /* \"#utility.yul\":370:402   */\n      slt\n        /* \"#utility.yul\":367:486   */\n      iszero\n      tag_27\n      jumpi\n        /* \"#utility.yul\":405:484   */\n      tag_28\n      tag_29\n      jump\t// in\n    tag_28:\n        /* \"#utility.yul\":367:486   */\n    tag_27:\n        /* \"#utility.yul\":525:526   */\n      0x00\n        /* \"#utility.yul\":550:603   */\n      tag_30\n        /* \"#utility.yul\":595:602   */\n      dup5\n        /* \"#utility.yul\":586:592   */\n      dup3\n        /* \"#utility.yul\":575:584   */\n      dup6\n        /* \"#utility.yul\":571:593   */\n      add\n        /* \"#utility.yul\":550:603   */\n      tag_18\n      jump\t// in\n    tag_30:\n        /* \"#utility.yul\":540:603   */\n      swap2\n      pop\n        /* \"#utility.yul\":496:613   */\n      pop\n        /* \"#utility.yul\":291:620   */\n      swap3\n      swap2\n      pop\n      pop\n      jump\t// out\n        /* \"#utility.yul\":626:1233   */\n    tag_13:\n        /* \"#utility.yul\":697:703   */\n      0x00\n        /* \"#utility.yul\":705:711   */\n      dup1\n        /* \"#utility.yul\":713:719   */\n      0x00\n        /* \"#utility.yul\":762:764   */\n      0x60\n        /* \"#utility.yul\":750:759   */\n      dup5\n        /* \"#utility.yul\":741:748   */\n      dup7\n        /* \"#utility.yul\":737:760   */\n      sub\n        /* \"#utility.yul\":733:765   */\n      slt\n        /* \"#utility.yul\":730:849   */\n      iszero\n      tag_32\n      jumpi\n        /* \"#utility.yul\":768:847   */\n      tag_33\n      tag_29\n      jump\t// in\n    tag_33:\n        /* \"#utility.yul\":730:849   */\n    tag_32:\n        /* \"#utility.yul\":888:889   */\n      0x00\n        /* \"#utility.yul\":913:966   */\n      tag_34\n        /* \"#utility.yul\":958:965   */\n      dup7\n        /* \"#utility.yul\":949:955   */\n      dup3\n        /* \"#utility.yul\":938:947   */\n      dup8\n        /* \"#utility.yul\":934:956   */\n      add\n        /* \"#utility.yul\":913:966   */\n      tag_18\n      jump\t// in\n    tag_34:\n        /* \"#utility.yul\":903:966   */\n      swap4\n      pop\n        /* \"#utility.yul\":859:976   */\n      pop\n        /* \"#utility.yul\":1015:1017   */\n      0x20\n        /* \"#utility.yul\":1041:1091   */\n      tag_35\n        /* \"#utility.yul\":1083:1090   */\n      dup7\n        /* \"#utility.yul\":1074:1080   */\n      dup3\n        /* \"#utility.yul\":1063:1072   */\n      dup8\n        /* \"#utility.yul\":1059:1081   */\n      add\n        /* \"#utility.yul\":1041:1091   */\n      tag_22\n      jump\t// in\n    tag_35:\n        /* \"#utility.yul\":1031:1091   */\n      swap3\n      pop\n        /* \"#utility.yul\":986:1101   */\n      pop\n        /* \"#utility.yul\":1140:1142   */\n      0x40\n        /* \"#utility.yul\":1166:1216   */\n      tag_36\n        /* \"#utility.yul\":1208:1215   */\n      dup7\n        /* \"#utility.yul\":1199:1205   */\n      dup3\n        /* \"#utility.yul\":1188:1197   */\n      dup8\n        /* \"#utility.yul\":1184:1206   */\n      add\n        /* \"#utility.yul\":1166:1216   */\n      tag_22\n      jump\t// in\n    tag_36:\n        /* \"#utility.yul\":1156:1216   */\n      swap2\n      pop\n        /* \"#utility.yul\":1111:1226   */\n      pop\n        /* \"#utility.yul\":626:1233   */\n      swap3\n      pop\n      swap3\n      pop\n      swap3\n      jump\t// out\n        /* \"#utility.yul\":1239:1348   */\n    tag_37:\n        /* \"#utility.yul\":1320:1341   */\n      tag_39\n        /* \"#utility.yul\":1335:1340   */\n      dup2\n        /* \"#utility.yul\":1320:1341   */\n      tag_40\n      jump\t// in\n    tag_39:\n        /* \"#utility.yul\":1315:1318   */\n      dup3\n        /* \"#utility.yul\":1308:1342   */\n      mstore\n        /* \"#utility.yul\":1239:1348   */\n      pop\n      pop\n      jump\t// out\n        /* \"#utility.yul\":1354:1564   */\n    tag_10:\n        /* \"#utility.yul\":1441:1445   */\n      0x00\n        /* \"#utility.yul\":1479:1481   */\n      0x20\n        /* \"#utility.yul\":1468:1477   */\n      dup3\n        /* \"#utility.yul\":1464:1482   */\n      add\n        /* \"#utility.yul\":1456:1482   */\n      swap1\n      pop\n        /* \"#utility.yul\":1492:1557   */\n      tag_42\n        /* \"#utility.yul\":1554:1555   */\n      0x00\n        /* \"#utility.yul\":1543:1552   */\n      dup4\n        /* \"#utility.yul\":1539:1556   */\n      add\n        /* \"#utility.yul\":1530:1536   */\n      dup5\n        /* \"#utility.yul\":1492:1557   */\n      tag_37\n      jump\t// in\n    tag_42:\n        /* \"#utility.yul\":1354:1564   */\n      swap3\n      swap2\n      pop\n      pop\n      jump\t// out\n        /* \"#utility.yul\":1651:1747   */\n    tag_45:\n        /* \"#utility.yul\":1688:1695   */\n      0x00\n        /* \"#utility.yul\":1717:1741   */\n      tag_47\n        /* \"#utility.yul\":1735:1740   */\n      dup3\n        /* \"#utility.yul\":1717:1741   */\n      tag_48\n      jump\t// in\n    tag_47:\n        /* \"#utility.yul\":1706:1741   */\n      swap1\n      pop\n        /* \"#utility.yul\":1651:1747   */\n      swap2\n      swap1\n      pop\n      jump\t// out\n        /* \"#utility.yul\":1753:1843   */\n    tag_40:\n        /* \"#utility.yul\":1787:1794   */\n      0x00\n        /* \"#utility.yul\":1830:1835   */\n      dup2\n        /* \"#utility.yul\":1823:1836   */\n      iszero\n        /* \"#utility.yul\":1816:1837   */\n      iszero\n        /* \"#utility.yul\":1805:1837   */\n      swap1\n      pop\n        /* \"#utility.yul\":1753:1843   */\n      swap2\n      swap1\n      pop\n      jump\t// out\n        /* \"#utility.yul\":1849:1975   */\n    tag_48:\n        /* \"#utility.yul\":1886:1893   */\n      0x00\n        /* \"#utility.yul\":1926:1968   */\n      0xffffffffffffffffffffffffffffffffffffffff\n        /* \"#utility.yul\":1919:1924   */\n      dup3\n        /* \"#utility.yul\":1915:1969   */\n      and\n        /* \"#utility.yul\":1904:1969   */\n      swap1\n      pop\n        /* \"#utility.yul\":1849:1975   */\n      swap2\n      swap1\n      pop\n      jump\t// out\n        /* \"#utility.yul\":2104:2221   */\n    tag_29:\n        /* \"#utility.yul\":2213:2214   */\n      0x00\n        /* \"#utility.yul\":2210:2211   */\n      dup1\n        /* \"#utility.yul\":2203:2215   */\n      revert\n        /* \"#utility.yul\":2227:2349   */\n    tag_21:\n        /* \"#utility.yul\":2300:2324   */\n      tag_55\n        /* \"#utility.yul\":2318:2323   */\n      dup2\n        /* \"#utility.yul\":2300:2324   */\n      tag_45\n      jump\t// in\n    tag_55:\n        /* \"#utility.yul\":2293:2298   */\n      dup2\n        /* \"#utility.yul\":2290:2325   */\n      eq\n        /* \"#utility.yul\":2280:2343   */\n      tag_56\n      jumpi\n        /* \"#utility.yul\":2339:2340   */\n      0x00\n        /* \"#utility.yul\":2336:2337   */\n      dup1\n        /* \"#utility.yul\":2329:2341   */\n      revert\n        /* \"#utility.yul\":2280:2343   */\n    tag_56:\n        /* \"#utility.yul\":2227:2349   */\n      pop\n      jump\t// out\n        /* \"#utility.yul\":2355:2471   */\n    tag_25:\n        /* \"#utility.yul\":2425:2446   */\n      tag_58\n        /* \"#utility.yul\":2440:2445   */\n      dup2\n        /* \"#utility.yul\":2425:2446   */\n      tag_40\n      jump\t// in\n    tag_58:\n        /* \"#utility.yul\":2418:2423   */\n      dup2\n        /* \"#utility.yul\":2415:2447   */\n      eq\n        /* \"#utility.yul\":2405:2465   */\n      tag_59\n      jumpi\n        /* \"#utility.yul\":2461:2462   */\n      0x00\n        /* \"#utility.yul\":2458:2459   */\n      dup1\n        /* \"#utility.yul\":2451:2463   */\n      revert\n        /* \"#utility.yul\":2405:2465   */\n    tag_59:\n        /* \"#utility.yul\":2355:2471   */\n      pop\n      jump\t// out\n\n    auxdata: 0xa26469706673582212204b36f82d62e160ff9c835a7646bcb610d9b10dc145d120f15f9927b74dc5bfaa64736f6c63430008070033\n}\n",
				"bytecode": {
					"linkReferences": {},
					"object": "608060405234801561001057600080fd5b5060016000803373ffffffffffffffffffffffffffffffffffffffff1673ffffffffffffffffffffffffffffffffffffffff16815260200190815260200160002060000160016101000a81548160ff0219169083151502179055506102da8061007a6000396000f3fe608060405234801561001057600080fd5b50600436106100365760003560e01c80636386c1c71461003b578063b61fee3f1461006b575b600080fd5b61005560048036038101906100509190610189565b610087565b6040516100629190610218565b60405180910390f35b610085600480360381019061008091906101b6565b6100df565b005b60008060008373ffffffffffffffffffffffffffffffffffffffff1673ffffffffffffffffffffffffffffffffffffffff16815260200190815260200160002060000160009054906101000a900460ff169050919050565b60008060008573ffffffffffffffffffffffffffffffffffffffff1673ffffffffffffffffffffffffffffffffffffffff1681526020019081526020016000209050828160000160006101000a81548160ff021916908315150217905550818160000160016101000a81548160ff02191690831515021790555050505050565b60008135905061016e81610276565b92915050565b6000813590506101838161028d565b92915050565b60006020828403121561019f5761019e610271565b5b60006101ad8482850161015f565b91505092915050565b6000806000606084860312156101cf576101ce610271565b5b60006101dd8682870161015f565b93505060206101ee86828701610174565b92505060406101ff86828701610174565b9150509250925092565b61021281610245565b82525050565b600060208201905061022d6000830184610209565b92915050565b600061023e82610251565b9050919050565b60008115159050919050565b600073ffffffffffffffffffffffffffffffffffffffff82169050919050565b600080fd5b61027f81610233565b811461028a57600080fd5b50565b61029681610245565b81146102a157600080fd5b5056fea26469706673582212204b36f82d62e160ff9c835a7646bcb610d9b10dc145d120f15f9927b74dc5bfaa64736f6c63430008070033",
					"opcodes": "PUSH1 0x80 PUSH1 0x40 MSTORE CALLVALUE DUP1 ISZERO PUSH2 0x10 JUMPI PUSH1 0x0 DUP1 REVERT JUMPDEST POP PUSH1 0x1 PUSH1 0x0 DUP1 CALLER PUSH20 0xFFFFFFFFFFFFFFFFFFFFFFFFFFFFFFFFFFFFFFFF AND PUSH20 0xFFFFFFFFFFFFFFFFFFFFFFFFFFFFFFFFFFFFFFFF AND DUP2 MSTORE PUSH1 0x20 ADD SWAP1 DUP2 MSTORE PUSH1 0x20 ADD PUSH1 0x0 KECCAK256 PUSH1 0x0 ADD PUSH1 0x1 PUSH2 0x100 EXP DUP2 SLOAD DUP2 PUSH1 0xFF MUL NOT AND SWAP1 DUP4 ISZERO ISZERO MUL OR SWAP1 SSTORE POP PUSH2 0x2DA DUP1 PUSH2 0x7A PUSH1 0x0 CODECOPY PUSH1 0x0 RETURN INVALID PUSH1 0x80 PUSH1 0x40 MSTORE CALLVALUE DUP1 ISZERO PUSH2 0x10 JUMPI PUSH1 0x0 DUP1 REVERT JUMPDEST POP PUSH1 0x4 CALLDATASIZE LT PUSH2 0x36 JUMPI PUSH1 0x0 CALLDATALOAD PUSH1 0xE0 SHR DUP1 PUSH4 0x6386C1C7 EQ PUSH2 0x3B JUMPI DUP1 PUSH4 0xB61FEE3F EQ PUSH2 0x6B JUMPI JUMPDEST PUSH1 0x0 DUP1 REVERT JUMPDEST PUSH2 0x55 PUSH1 0x4 DUP1 CALLDATASIZE SUB DUP2 ADD SWAP1 PUSH2 0x50 SWAP2 SWAP1 PUSH2 0x189 JUMP JUMPDEST PUSH2 0x87 JUMP JUMPDEST PUSH1 0x40 MLOAD PUSH2 0x62 SWAP2 SWAP1 PUSH2 0x218 JUMP JUMPDEST PUSH1 0x40 MLOAD DUP1 SWAP2 SUB SWAP1 RETURN JUMPDEST PUSH2 0x85 PUSH1 0x4 DUP1 CALLDATASIZE SUB DUP2 ADD SWAP1 PUSH2 0x80 SWAP2 SWAP1 PUSH2 0x1B6 JUMP JUMPDEST PUSH2 0xDF JUMP JUMPDEST STOP JUMPDEST PUSH1 0x0 DUP1 PUSH1 0x0 DUP4 PUSH20 0xFFFFFFFFFFFFFFFFFFFFFFFFFFFFFFFFFFFFFFFF AND PUSH20 0xFFFFFFFFFFFFFFFFFFFFFFFFFFFFFFFFFFFFFFFF AND DUP2 MSTORE PUSH1 0x20 ADD SWAP1 DUP2 MSTORE PUSH1 0x20 ADD PUSH1 0x0 KECCAK256 PUSH1 0x0 ADD PUSH1 0x0 SWAP1 SLOAD SWAP1 PUSH2 0x100 EXP SWAP1 DIV PUSH1 0xFF AND SWAP1 POP SWAP2 SWAP1 POP JUMP JUMPDEST PUSH1 0x0 DUP1 PUSH1 0x0 DUP6 PUSH20 0xFFFFFFFFFFFFFFFFFFFFFFFFFFFFFFFFFFFFFFFF AND PUSH20 0xFFFFFFFFFFFFFFFFFFFFFFFFFFFFFFFFFFFFFFFF AND DUP2 MSTORE PUSH1 0x20 ADD SWAP1 DUP2 MSTORE PUSH1 0x20 ADD PUSH1 0x0 KECCAK256 SWAP1 POP DUP3 DUP2 PUSH1 0x0 ADD PUSH1 0x0 PUSH2 0x100 EXP DUP2 SLOAD DUP2 PUSH1 0xFF MUL NOT AND SWAP1 DUP4 ISZERO ISZERO MUL OR SWAP1 SSTORE POP DUP2 DUP2 PUSH1 0x0 ADD PUSH1 0x1 PUSH2 0x100 EXP DUP2 SLOAD DUP2 PUSH1 0xFF MUL NOT AND SWAP1 DUP4 ISZERO ISZERO MUL OR SWAP1 SSTORE POP POP POP POP POP JUMP JUMPDEST PUSH1 0x0 DUP2 CALLDATALOAD SWAP1 POP PUSH2 0x16E DUP2 PUSH2 0x276 JUMP JUMPDEST SWAP3 SWAP2 POP POP JUMP JUMPDEST PUSH1 0x0 DUP2 CALLDATALOAD SWAP1 POP PUSH2 0x183 DUP2 PUSH2 0x28D JUMP JUMPDEST SWAP3 SWAP2 POP POP JUMP JUMPDEST PUSH1 0x0 PUSH1 0x20 DUP3 DUP5 SUB SLT ISZERO PUSH2 0x19F JUMPI PUSH2 0x19E PUSH2 0x271 JUMP JUMPDEST JUMPDEST PUSH1 0x0 PUSH2 0x1AD DUP5 DUP3 DUP6 ADD PUSH2 0x15F JUMP JUMPDEST SWAP2 POP POP SWAP3 SWAP2 POP POP JUMP JUMPDEST PUSH1 0x0 DUP1 PUSH1 0x0 PUSH1 0x60 DUP5 DUP7 SUB SLT ISZERO PUSH2 0x1CF JUMPI PUSH2 0x1CE PUSH2 0x271 JUMP JUMPDEST JUMPDEST PUSH1 0x0 PUSH2 0x1DD DUP7 DUP3 DUP8 ADD PUSH2 0x15F JUMP JUMPDEST SWAP4 POP POP PUSH1 0x20 PUSH2 0x1EE DUP7 DUP3 DUP8 ADD PUSH2 0x174 JUMP JUMPDEST SWAP3 POP POP PUSH1 0x40 PUSH2 0x1FF DUP7 DUP3 DUP8 ADD PUSH2 0x174 JUMP JUMPDEST SWAP2 POP POP SWAP3 POP SWAP3 POP SWAP3 JUMP JUMPDEST PUSH2 0x212 DUP2 PUSH2 0x245 JUMP JUMPDEST DUP3 MSTORE POP POP JUMP JUMPDEST PUSH1 0x0 PUSH1 0x20 DUP3 ADD SWAP1 POP PUSH2 0x22D PUSH1 0x0 DUP4 ADD DUP5 PUSH2 0x209 JUMP JUMPDEST SWAP3 SWAP2 POP POP JUMP JUMPDEST PUSH1 0x0 PUSH2 0x23E DUP3 PUSH2 0x251 JUMP JUMPDEST SWAP1 POP SWAP2 SWAP1 POP JUMP JUMPDEST PUSH1 0x0 DUP2 ISZERO ISZERO SWAP1 POP SWAP2 SWAP1 POP JUMP JUMPDEST PUSH1 0x0 PUSH20 0xFFFFFFFFFFFFFFFFFFFFFFFFFFFFFFFFFFFFFFFF DUP3 AND SWAP1 POP SWAP2 SWAP1 POP JUMP JUMPDEST PUSH1 0x0 DUP1 REVERT JUMPDEST PUSH2 0x27F DUP2 PUSH2 0x233 JUMP JUMPDEST DUP2 EQ PUSH2 0x28A JUMPI PUSH1 0x0 DUP1 REVERT JUMPDEST POP JUMP JUMPDEST PUSH2 0x296 DUP2 PUSH2 0x245 JUMP JUMPDEST DUP2 EQ PUSH2 0x2A1 JUMPI PUSH1 0x0 DUP1 REVERT JUMPDEST POP JUMP INVALID LOG2 PUSH5 0x6970667358 0x22 SLT KECCAK256 0x4B CALLDATASIZE 0xF8 0x2D PUSH3 0xE160FF SWAP13 DUP4 GAS PUSH23 0x46BCB610D9B10DC145D120F15F9927B74DC5BFAA64736F PUSH13 0x63430008070033000000000000 "
				},
				"gasEstimates": {
					"creation": {
						"codeDepositCost": "146000",
						"executionCost": "24602",
						"totalCost": "170602"
					},
					"external": {
						"getUserInfo(address)": "2867",
						"setUserInfo(address,bool,bool)": "infinite"
					}
				},
				"methodIdentifiers": {
					"getUserInfo(address)": "6386c1c7",
					"setUserInfo(address,bool,bool)": "b61fee3f"
				}
			},
			"storageLayout": {
				"storage": [
					{
						"astId": 23,
						"contract": "ValueRobot.sol:ValueRobot",
						"label": "userInfo",
						"offset": 0,
						"slot": "0",
						"type": "t_mapping(t_address,t_struct(UserInfo)6_storage)"
					}
				],
				"types": {
					"t_address": {
						"encoding": "inplace",
						"label": "address",
						"numberOfBytes": "20"
					},
					"t_bool": {
						"encoding": "inplace",
						"label": "bool",
						"numberOfBytes": "1"
					},
					"t_mapping(t_address,t_struct(UserInfo)6_storage)": {
						"encoding": "mapping",
						"key": "t_address",
						"label": "mapping(address => struct ValueRobot.UserInfo)",
						"numberOfBytes": "32",
						"value": "t_struct(UserInfo)6_storage"
					},
					"t_struct(UserInfo)6_storage": {
						"encoding": "inplace",
						"label": "struct ValueRobot.UserInfo",
						"members": [
							{
								"astId": 3,
								"contract": "ValueRobot.sol:ValueRobot",
								"label": "userPermissions",
								"offset": 0,
								"slot": "0",
								"type": "t_bool"
							},
							{
								"astId": 5,
								"contract": "ValueRobot.sol:ValueRobot",
								"label": "owner",
								"offset": 1,
								"slot": "0",
								"type": "t_bool"
							}
						],
						"numberOfBytes": "32"
					}
				}
			},
			"userdoc": {
				"kind": "user",
				"methods": {},
				"version": 1
			}
		}
	}
}