{
	"data": {
		"bytecode": {
			"linkReferences": {},
			"object": "608060405234801561001057600080fd5b5061021c806100206000396000f3fe608060405234801561001057600080fd5b50600436106100365760003560e01c80635baf7b981461003b5780635d8d158514610057575b600080fd5b6100556004803603810190610050919061017c565b610075565b005b61005f6100d8565b60405161006c91906101cb565b60405180910390f35b60008060008473ffffffffffffffffffffffffffffffffffffffff1673ffffffffffffffffffffffffffffffffffffffff1681526020019081526020016000209050818160000160006101000a81548160ff021916908315150217905550505050565b60006001905090565b600080fd5b600073ffffffffffffffffffffffffffffffffffffffff82169050919050565b6000610111826100e6565b9050919050565b61012181610106565b811461012c57600080fd5b50565b60008135905061013e81610118565b92915050565b60008115159050919050565b61015981610144565b811461016457600080fd5b50565b60008135905061017681610150565b92915050565b60008060408385031215610193576101926100e1565b5b60006101a18582860161012f565b92505060206101b285828601610167565b9150509250929050565b6101c581610144565b82525050565b60006020820190506101e060008301846101bc565b9291505056fea2646970667358221220b404c95abd8af8ede1e527d08b47fc13aaa5ccaf993e0e24151fa7e2a390308e64736f6c63430008110033",
			"opcodes": "PUSH1 0x80 PUSH1 0x40 MSTORE CALLVALUE DUP1 ISZERO PUSH2 0x10 JUMPI PUSH1 0x0 DUP1 REVERT JUMPDEST POP PUSH2 0x21C DUP1 PUSH2 0x20 PUSH1 0x0 CODECOPY PUSH1 0x0 RETURN INVALID PUSH1 0x80 PUSH1 0x40 MSTORE CALLVALUE DUP1 ISZERO PUSH2 0x10 JUMPI PUSH1 0x0 DUP1 REVERT JUMPDEST POP PUSH1 0x4 CALLDATASIZE LT PUSH2 0x36 JUMPI PUSH1 0x0 CALLDATALOAD PUSH1 0xE0 SHR DUP1 PUSH4 0x5BAF7B98 EQ PUSH2 0x3B JUMPI DUP1 PUSH4 0x5D8D1585 EQ PUSH2 0x57 JUMPI JUMPDEST PUSH1 0x0 DUP1 REVERT JUMPDEST PUSH2 0x55 PUSH1 0x4 DUP1 CALLDATASIZE SUB DUP2 ADD SWAP1 PUSH2 0x50 SWAP2 SWAP1 PUSH2 0x17C JUMP JUMPDEST PUSH2 0x75 JUMP JUMPDEST STOP JUMPDEST PUSH2 0x5F PUSH2 0xD8 JUMP JUMPDEST PUSH1 0x40 MLOAD PUSH2 0x6C SWAP2 SWAP1 PUSH2 0x1CB JUMP JUMPDEST PUSH1 0x40 MLOAD DUP1 SWAP2 SUB SWAP1 RETURN JUMPDEST PUSH1 0x0 DUP1 PUSH1 0x0 DUP5 PUSH20 0xFFFFFFFFFFFFFFFFFFFFFFFFFFFFFFFFFFFFFFFF AND PUSH20 0xFFFFFFFFFFFFFFFFFFFFFFFFFFFFFFFFFFFFFFFF AND DUP2 MSTORE PUSH1 0x20 ADD SWAP1 DUP2 MSTORE PUSH1 0x20 ADD PUSH1 0x0 KECCAK256 SWAP1 POP DUP2 DUP2 PUSH1 0x0 ADD PUSH1 0x0 PUSH2 0x100 EXP DUP2 SLOAD DUP2 PUSH1 0xFF MUL NOT AND SWAP1 DUP4 ISZERO ISZERO MUL OR SWAP1 SSTORE POP POP POP POP JUMP JUMPDEST PUSH1 0x0 PUSH1 0x1 SWAP1 POP SWAP1 JUMP JUMPDEST PUSH1 0x0 DUP1 REVERT JUMPDEST PUSH1 0x0 PUSH20 0xFFFFFFFFFFFFFFFFFFFFFFFFFFFFFFFFFFFFFFFF DUP3 AND SWAP1 POP SWAP2 SWAP1 POP JUMP JUMPDEST PUSH1 0x0 PUSH2 0x111 DUP3 PUSH2 0xE6 JUMP JUMPDEST SWAP1 POP SWAP2 SWAP1 POP JUMP JUMPDEST PUSH2 0x121 DUP2 PUSH2 0x106 JUMP JUMPDEST DUP2 EQ PUSH2 0x12C JUMPI PUSH1 0x0 DUP1 REVERT JUMPDEST POP JUMP JUMPDEST PUSH1 0x0 DUP2 CALLDATALOAD SWAP1 POP PUSH2 0x13E DUP2 PUSH2 0x118 JUMP JUMPDEST SWAP3 SWAP2 POP POP JUMP JUMPDEST PUSH1 0x0 DUP2 ISZERO ISZERO SWAP1 POP SWAP2 SWAP1 POP JUMP JUMPDEST PUSH2 0x159 DUP2 PUSH2 0x144 JUMP JUMPDEST DUP2 EQ PUSH2 0x164 JUMPI PUSH1 0x0 DUP1 REVERT JUMPDEST POP JUMP JUMPDEST PUSH1 0x0 DUP2 CALLDATALOAD SWAP1 POP PUSH2 0x176 DUP2 PUSH2 0x150 JUMP JUMPDEST SWAP3 SWAP2 POP POP JUMP JUMPDEST PUSH1 0x0 DUP1 PUSH1 0x40 DUP4 DUP6 SUB SLT ISZERO PUSH2 0x193 JUMPI PUSH2 0x192 PUSH2 0xE1 JUMP JUMPDEST JUMPDEST PUSH1 0x0 PUSH2 0x1A1 DUP6 DUP3 DUP7 ADD PUSH2 0x12F JUMP JUMPDEST SWAP3 POP POP PUSH1 0x20 PUSH2 0x1B2 DUP6 DUP3 DUP7 ADD PUSH2 0x167 JUMP JUMPDEST SWAP2 POP POP SWAP3 POP SWAP3 SWAP1 POP JUMP JUMPDEST PUSH2 0x1C5 DUP2 PUSH2 0x144 JUMP JUMPDEST DUP3 MSTORE POP POP JUMP JUMPDEST PUSH1 0x0 PUSH1 0x20 DUP3 ADD SWAP1 POP PUSH2 0x1E0 PUSH1 0x0 DUP4 ADD DUP5 PUSH2 0x1BC JUMP JUMPDEST SWAP3 SWAP2 POP POP JUMP INVALID LOG2 PUSH5 0x6970667358 0x22 SLT KECCAK256 0xB4 DIV 0xC9 GAS 0xBD DUP11 0xF8 0xED 0xE1 0xE5 0x27 0xD0 DUP12 SELFBALANCE 0xFC SGT 0xAA 0xA5 0xCC 0xAF SWAP10 RETURNDATACOPY 0xE 0x24 ISZERO 0x1F 0xA7 0xE2 LOG3 SWAP1 ADDRESS DUP15 PUSH5 0x736F6C6343 STOP ADDMOD GT STOP CALLER "
		},
		"gasEstimates": {
			"creation": {
				"codeDepositCost": "108000",
				"executionCost": "153",
				"totalCost": "108153"
			},
			"external": {
				"getUserInfo()": "343",
				"setUserInfo(address,bool)": "24988"
			}
		},
		"methodIdentifiers": {
			"getUserInfo()": "5d8d1585",
			"setUserInfo(address,bool)": "5baf7b98"
		}
	},
	"abi": [
		{
			"inputs": [],
			"name": "getUserInfo",
			"outputs": [
				{
					"internalType": "bool",
					"name": "_userPermissions",
					"type": "bool"
				}
			],
			"stateMutability": "pure",
			"type": "function"
		},
		{
			"inputs": [
				{
					"internalType": "address",
					"name": "_address",
					"type": "address"
				},
				{
					"internalType": "bool",
					"name": "_userPermissions",
					"type": "bool"
				}
			],
			"name": "setUserInfo",
			"outputs": [],
			"stateMutability": "nonpayable",
			"type": "function"
		}
	]
}